:03000000020006F5
:03005F0002000399
:0300030002012ACD
:20006200758201122E8A9000FA12309780F2AFF0AE83E58290013BF0EEA3F0EFA3F07582FA
:200082002012188DE58260047582002290013BE0FDA3E0FEA3E0FF90022A7426F0E4A3F03A
:2000A20090022CEDF0EEA3F0EFA3F090FA00122032E58260047582002275820122E58290BD
:2000C2000140F0900141E4F0900002E0900142F0900140E0900145F090013EE0FEA3E0FF6C
:2000E2007D007C0090014DEEF0EFA3F0EDA3F0ECA3F090014175F000020BD9E58290015261
:20010200F09001537402F0900002E0900154F0900152E0900157F0900151E0900159F09095
:20012200015375F000020BD9900002E0FF900164F0740755B130E10353AEFD900228740304
:20014200F0758201121E3E9001867425F090FC0075F00012084AAF8290FC25E0FEB50702D4
:2001620080031200629001867425F090FA0075F00012084AAF8290FA25E0FEB50702801087
:2001820090FC0075F000120070E582700312006290FC00E0FF90FA00E0FEEFB5060280108D
:2001A20090FC0075F000120070E58270031200629001FE7400F074FAA3F0E4A3F09002017E
:2001C2007426F0E4A3F090000175F00012176490E102122E57120FD31208C690000175F0C5
:2001E20000120AC9900005E0F5821209F2900003E0F58212096D900004E0F58212098E9089
:200202000015E060239001F4E4F09001F57416F07400A3F0E4A3F09001F8F0A3F0A3F0905E
:20022200002775F00012160675820012326AAE82AF839001637401F0900167E4F0900165E0
:200242007404F090016614F07D007C0090016FEEF0EFA3F0EDA3F0ECA3F090016375F00088
:20026200120BD99001637401F0900167F0900165E4F0900166F090017775F00012062CE5FE
:2002820082FF701E900177E0FBA3E0FCA3E0FDA3E0FE90016FEBF0ECA3F0EDA3F0EEA3F08F
:2002A200800B9001637402F0900169EFF090016375F000120BD990015E12309790016574FD
:2002C20002F09001CA7475F07401A3F0E4A3F090017375F000120FDFE582FF602E90016920
:2002E200EFF09001637402F0900167F090016375F000120BD99001637402F090016704F046
:2003020090016375F000120BD980649001637401F090016704F0900166E4F0900173E0FEB6
:20032200A3E0FF3395E0FDFC90016FEEF0EFA3F0EDA3F0ECA3F090016375F000120BD9905A
:2003420001677403F09001667401F0900175E0FEA3E0FF3395E0FDFC90016FEEF0EFA3F009
:20036200EDA3F0ECA3F090016375F000120BD99001AC7450F074C3A3F090016375F0001207
:200382000D45AF82758201C007122E8AD007EF70030204C7900164E0FF900002E0FEEFB561
:2003A200060280030204C7900163E0FFBF030280030204C7900168E0FFBF01028003BF021E
:2003C200AE900167E0FFBF04028008BF0503020447809C900168E0FFBF0114900010E0905D
:2003E200013EF0E4A3F07582041200BF02037190016FE0FCA3E0A3E0A3E0900010ECF090A2
:2004020001867425F090000175F00012084AAF82900026EFF090000175F000120070E582CB
:20042200700F9001517401F07582041200FD020371900010E090013EF0E4A3F075820412B1
:2004420000BF020371900168E0FFBF0119900011E0FEA3E0FF90013EEEF0EFA3F075820588
:200462001200BF02037190016FE0FCA3E0FDA3E0A3E0900011ECF0EDA3F09001867425F034
:2004820090000175F00012084AAF82900026EFF090000175F000120070E582700F900151FA
:2004A2007401F07582051200FD020371900011E0FEA3E0FF90013EEEF0EFA3F07582051216
:2004C20000BF02037175820D1218B5E582604A900011E0FEA3E0FF4E603F75820112337A4C
:2004E20053D37F120E61740755ADFFBF070B75820112314EE5AD30E6FB900011E0FEA3E059
:200502005401A2E0CE13CE13CEFF8EAF8FAF7582021215AEE5B175A40390001E12122A027A
:02052200022AAB
:200524009002287401F075820B121E3E9001E0123220900228E4F075820B121E3E90003C89
:2005440012322075820B1218B5E582FFB401009200E433FF9001B8C007123220D0078F8233
:2005640022E58290017BF07F0890017BE0FE530601BE01299002287401F075820BC0071245
:200584001E3E900002123220900228E4F075820B121E3E90003C123220D0078021900228A5
:2005A4007401F075820BC007121E3E90003C123220900228E4F075820B121E3ED007900105
:2005C4007BE0C313FEF0DF012202056D2290017CE4F07F009002287401F075820BC0071206
:2005E4001E3E900002123220900228E4F075820B121E3E90000212322075820B1218B5AE22
:2006040082900032C006123220D006D00790017CE0C313FDEE035480FE4DF00FBF080040E5
:20062400B390017CE0F58222AFF0AE83E58290017DF0EEA3F0EFA3F0900228E4F075820BB5
:20064400121E3E120524E5827004758201227582CC12056575824E12056575820012056585
:200664007582FF12056575823F120565120524E5827004758201227582CC120565758244A8
:200684001205657E907F01C007C0061205D1AD82D006D007BDFF0280091EBEFF011FEE4F7C
:2006A40070E5EE4F700475820222120524E5827004758201227582CC1205657582BE1205DA
:2006C400651205D1AF82900180EFF01205D1AF82900181EFF0900228E4F075820B121E3EA0
:2006E400900181E0FE7F00900180E07C004207EC4206900182EFF0EEA3F07C0074805EFD5F
:20070400EC60116307FF6306FF90018274012FF0E43EA3F090017DE0FDA3E0FEA3E0FF90CD
:200724000182E0FBA3E0FC900237EBF0ECA3F0900006C007C006C005C004C003122154A916
:2007440082AA83D003D00490025E7404F0E4A3F08B828C83C002C001122708AB82AC83D064
:2007640001D002EB29F9EC3AFA89828A83122D13A982AA83ABF0FCE4C0E0C0E074C8C0E01C
:200784007442C0E089828A838BF0EC12329BA982AA83ABF0FCE58124FCF581D005D006D03B
:1E07A400078D828E838FF0E9121DC9A3EA121DC9A3EB121DC9A3EC121DC97582002205
:2007C200E582900185F0900184E0FF900185E0FEEF6EF0900184E4F0900185E0FF30E00681
:2007E200900184745EF0EF30E109900184E0FE74BC6EF0EF30E209900184E0FE74616EF066
:20080200EF30E309900184E0FE74C26EF0EF30E409900184E0FE749D6EF0EF30E509900138
:2008220084E0FE74236EF0EF30E609900184E0FE74466EF0EF30E709900184E0FF748C6FD4
:20084200F0900184E0F58222AFF0AE83E582900187F0EEA3F0EFA3F090018AE4F0900187CF
:20086200E0FDA3E0FEA3E0FF900186E0FC8C031CEB603F8D828E838FF012335EFBA3AD825F
:20088200AE83900187EDF0EEA3F0EFA3F090018AE0900184F08B82C007C006C005C00412F8
:2008A20007C2E582D004D005D006D00790018AF080BB900187EDF0EEA3F0EFA3F090018A57
:0408C200E0F58222B9
:2008C6001215FF90018B740EF09001E7748BF07401A3F0E4A3F09001EA04F0E4A3F075829B
:2008E600001214C590000212309790018B7433F09001E7748BF07401A3F0E4A3F09001EA88
:2009060004F0E4A3F07582041214C590018B7403F09001E7748BF07401A3F0E4A3F0900186
:20092600EA04F0E4A3F07582031214C590018B7406F09001E7748BF07401A3F0E4A3F0907B
:2009460001EA04F0E4A3F07582061214C590020FE4F0A3F0A3F0900212F0A3F090021404E7
:20096600F07582E1021982E58290018CF09001E7748CF07401A3F0E4A3F09001EA04F0E45E
:20098600A3F07582050214C5E58290018DF0900231748EF07401A3F0E4A3F090023404F084
:2009A600E4A3F075820612211890018EE0FF74D75FF090018DE0FFBF010B90018EE0FE74A1
:2009C600204EF0800CBF030990018EE0FF74084FF09001E7748EF07401A3F0E4A3F0900129
:2009E600EA04F0E4A3F07582060214C5E58290018FF0900190E4F090018FE0FFBF01069003
:200A060001907403F09001E77490F07401A3F0E4A3F09001EA04F0E4A3F07582010214C534
:200A2600E582900191F09002317492F07401A3F0E4A3F090023404F0E4A3F07582001221A4
:200A460018900192E0FF74F35FF0900191E0FFBF010B900192E0FE74084EF0800CBF0209E3
:200A6600900192E0FF740C4FF09001E77492F07401A3F0E4A3F09001EA04F0E4A3F07582E5
:200A8600000214C59002317493F07401A3F0E4A3F090023404F0E4A3F07582061221189033
:200AA6000193E0FF74F95FF09001E77493F07401A3F0E4A3F09001EA04F0E4A3F075820630
:200AC6000214C5AFF0AE83E582900194F0EEA3F0EFA3F09001977403F09001E77497F07470
:200AE60001A3F0E4A3F09001EA04F0E4A3F07582021214C5900194E0FDA3E0FEA3E0FF9086
:200B060001E774052DF0E43EA3F0EFA3F09001EA7405F0E4A3F075820AC007C006C005125A
:200B260014C5D005D006D0079001E774052DF0E43EA3F0EFA3F09001EA7405F0E4A3F0753F
:200B46008210C007C006C0051214C5D005D006D007740E2DF508E43EF5098F0A74012DF83F
:200B6600E43EF98F04888289838CF012335E850882850983850AF0121DC99001E7740A2DD2
:200B8600F0E43EA3F0EFA3F09001EA7405F0E4A3F075820B1214C59001977410F09001E7CC
:200BA6007497F07401A3F0E4A3F09001EA04F0E4A3F07582111214C59001E77497F07401F4
:200BC600A3F0E4A3F09001EA04F0E4A3F07582120214C5AFF0AE83E582900198F0EEA3F06A
:200BE600EFA3F0900010E0FF90019BF0900015E06032900198E0FDA3E0FEA3E0FF7A9C7B21
:200C0600017C009001DEEDF0EEA3F0EFA3F09001E1EAF0EBA3F0ECA3F090002775F000128B
:200C260012A88028900198E0FDA3E0FEA3E0FF9001FEEDF0EEA3F0EFA3F09002017410F0CD
:200C4600E4A3F090019C75F000121764121956E582601A90020FE4F0A3F0A3F0900212F067
:200C6600A3F090021404F07582E11219821227797D9C7E017F009002227410F0E4A3F090C4
:200C8600022404F08D828E838FF0121DE47E2C7F0130C14E90020FE4F0A3F0A3F0900212DA
:200CA600F0A3F090021404F07582FFC007C006121982E582D006D00720E55290020FE4F001
:200CC600A3F0A3F0900212F0A3F090021404F07582FFC007C006121982E582D006D00720C3
:200CE600E42B8E048F051EBEFF011FEC4D700D90019BE0FD14F0ED6014020C5290000AC0E0
:200D060007C006123220D006D007020C9730C12C90020FE4F0A3F0A3F0900212F0A3F090DB
:200D2600021404F07582FF121982E58230E40D90019BE0FF14F0EF6003020C52022779AF66
:200D4600F0AE83E5829001AEF0EEA3F0EFA3F09001B1E4F075820112257F1227799001AC20
:200D6600E0FEA3E0FF8E048F051EBEFF011FEC4D606A30C15790020FE4F0A3F0A3F0900274
:200D860012F0A3F090021404F07582FFC007C006121982E582D006D00730E6307BB27C01EA
:200DA6007D009001D97410F0E4A3F08B828C838DF0C007C006121266E582D006D007540E35
:200DC600FDBD02089001B17401F0801090000AC007C006123220D006D00780899001B1E0AF
:200DE600FFE0606A900015E060367CB27D017E009001AEE0F9A3E0FAA3E0FB90023AECF044
:200E0600EDA3F0EEA3F090023DE9F0EAA3F0EBA3F090002775F000C0071221BCD007802ED1
:200E26009001AEE0FCA3E0FDA3E0FE9001FE74B2F07401A3F0E4A3F09002017410F0E4A3DE
:200E4600F08C828D838EF0C007121764D007C00712277912279DD0078F82221227790221A7
:010E66007417
:200E67009001F1E4F09000070215C2AFF0AE83E5829001C2F0EEA3F0EFA3F09001C6E4F0FD
:200E87009001C7F09001C8F09001C57410F090025174C5F07401A3F0E4A3F090025404F08B
:200EA70090025574C6F07401A3F0E4A3F0900258F0A3F0A3F0A3F07582231225E4AF82BFE3
:200EC7000104758202229000C812309790024674C7F07401A3F0E4A3F09002497402F0E413
:200EE700A3F0A3F0A3F075822312246CAF82BF0104758201229001C5E4F090025174C5F031
:200F07007401A3F0E4A3F090025404F090025574C6F07401A3F0E4A3F0900258F0A3F0A3D1
:200F2700F0A3F07582231225E49001C2E0FDA3E0FEA3E0FF9001C7E0FB7C009001C8E07A5D
:200F4700002CFCEA3BFB8C828B83C007C006C005122D13A982AA83ABF0FC749AC0E014C011
:200F6700E0C0E0743FC0E089828A838BF0EC12329BA982AA83ABF0FCE58124FCF581898243
:200F87008A838BF0EC122E4CAB82AC83D005D006D0078D828E838FF0EB121DC9A3EC121D2C
:050FA700C97582002263
:200FAC00E5829001C9F0E0FF7E50E59030E4047D0180027D00EDB507028002DEEDEE700364
:200FCC00F58222758201229002287440F075820C021E3EAFF0AE83E5829001CDF0EEA3F08D
:200FEC00EFA3F09001D0E4F09001D1F09001D2F09001D3F09001D4F09001D5F0A3F0900265
:20100C002804F075820C121E3E900012123097900228E4F075820C121E3E758200120FACF9
:20102C00E582700475820122758201120FACE582700475820122758200120FACE582700456
:20104C00758201227F008F067D00758201C007C006C005120FACE582D005D006D007700465
:20106C007582022290001EC007C006C00512322075820C1218B5E582D005D006D007602892
:20108C00EE24D0FBE43401FC8B828C83E0FA7407C39DF5F005F07401800225E0D5F0FBF9F2
:2010AC0042028B828C83EAF0758200C007C006C005120FACE582D005D006D0077004758280
:2010CC0002220DBD080050030210560FBF050050030210529001D0E070169001D1E0701040
:2010EC009001D2E0700A9001D3E07004758204227F00EF24D0F582E43401F583E0FE7D008D
:20110C009001D5E0FBA3E0FC9001D5EE2BF0ED3CA3F00FBF040040DA9001D5E0FEA3E07FA6
:20112C00009001D4E0FD7C00EEB50506EFB504028004758203229001D1E070539001D3E0A4
:20114C00704D9001CAE0FDA3E0FEA3E0FF9001D2E075F00AA4FCABF08D828E838FF0EC1201
:20116C001DC9A3EB121DC99001CDE0FDA3E0FEA3E0FF9001D0E075F00AA4FCABF08D828E31
:20118C00838FF0EC121DC9A3EB121DC90212269001CAE0FDA3E0FEA3E0FF9001D0E0FB7CAA
:2011AC00009001D1E07A004204EA42038D828E838FF0EC121DC9A3EB121DC99001CDE0FDAE
:2011CC00A3E0FEA3E0FF9001D2E0FC53047F8C037C009001D3E0F97A004204EA42038D82A5
:2011EC008E838FF0EC121DC9A3EB121DC99001D2E0FC30E7258D828E838FF012335EFBA38E
:1E120C0012335EFCC3E49BFBE49CFC8D828E838FF0EB121DC9A3EC121DC9758200224A
:20122A00AF83E5829001D7F0EFA3F09001D7E0FEA3E0FF7C007D00C3EC9EED9F501D900397
:1C124A00E8C007C006C005C004123097D004D005D006D0070CBC00DF0D80DC2229
:20126600AFF0AE83E5829001DBF0EEA3F0EFA3F09001DBE0FDA3E0FEA3E0FF9001D9E0FB41
:20128600A3E0FC90020FEDF0EEA3F0EFA3F0900212EBF0ECA3F09002147401F075826102E5
:0212A6001982AB
:2012A800AFF0AE83E5829001E4F0EEA3F0EFA3F09001E4E0FDA3E0FEA3E0FF9001DEE0F5EE
:2012C8000FA3E0F510A3E0F5117900E9F825E025E0FC2DF50BE43EF50C8F0D750E00C00552
:2012E800C006C007E50E250BFDE4350CFEAF0D88037C00E50E75F004A42BFBEC35F0FCEB35
:20130800250FFBEC3510FCAA118B828C838AF012335EFB8D828E838FF0121DC9050EC3E528
:201328000E9404D007D006D00540B3E804F9B904004098900206E4F08D828E838FF0C0073E
:20134800C006C0051217D8D005D006D00774012DFA74013EFB8F0479018A828B838CF01278
:20136800335EF8C399500302143F8D828E838FF0C007C006C005C004C003C002C0011215B6
:2013880003D001D002D003D004D005D006D0078D828E838FF0C007C006C005C004C003C03E
:2013A80002C001123467D001D002D003D004D005D006D0078A828B838CF012335EF8C002F6
:2013C800C003C0047C0018B8FF011C89027B00C3E89AEC64808BF063F08095F0D004D00381
:2013E800D00240258D828E838FF0C007C006C005C004C003C002C0011229E6D001D002D01F
:2014080003D004D005D006D007900206E9F08D828E838FF0C007C006C005C004C003C002C0
:20142800C0011217D8D001D002D003D004D005D006D007090213619001E1E0FAA3E0FBA32A
:20144800E0FC7900C002C003C004E9F825E025E02DF50FE43EF5108F11750E00D004D003D9
:20146800D002C005C006C00788067F00E50E75F004A42EFEEF35F0FFEE2AF50BEF3BF50CB1
:201488008C0DE50E250FFDE43510FEAF118D828E838FF012335E850B82850C83850DF012A4
:1D14A8001DC9050EC3E50E9404D007D006D00540B1E804F9B90400500302144C22F4
:2014C500E5829001ECF0E0FF741F5F4420FF9001E7E0FCA3E0FDA3E0FE9001EAE0FAA3E0D2
:1E14E500FB90020FECF0EDA3F0EEA3F0900212EAF0EBA3F0900214E4F08F820219824C
:20150300AFF0AE83E5829001EDF0EEA3F0EFA3F09001EDE0FDA3E0FEA3E0FF7B007C008B40
:20152300128C138B00ECC825E0C833C825E0C833FAE82DF516EA3EF5178F18E4F514F51504
:20154300C005C006C007E5142516FDE5153517FEAF188D828E838FF012335EF582C007C0BA
:2015630006C005121948AA82D005D006D0078D828E838FF0EA121DC90514E4B51402051519
:20158300C3E5149404E51564809480D007D006D00540AD74012512FBE43513FCC3EB94047E
:0B15A300EC64809480500302152222AB
:06003500E478FFF6D8FD9F
:1415AE00E5829001F0F074F855AEFFE0FE74075E4FF5AE2218
:2015C200AF83E5829001F2F0EFA3F043E201E5E29001F2E0FEA3E0FF8EE274DF55E1FD8F26
:1D15E2000474205C4DF5E1E5E220E1069001F1E0F5D9EE20E00353E2FE43A60422A4
:0715FF0075E80275E8042203
:20160600AFF0AE83E5829001FBF0EEA3F0EFA3F09001F4E0FFE070339001FBE0FCA3E0FD3F
:20162600A3E0FE8C0174012DFA8E0389828A838BF07404121DC974012CFC74013DFD8C820C
:201646008D838EF0740A121DC98067BF01339001FBE0FDA3E0FEA3E0FF8D0274012EFB8F7E
:20166600048A828B838CF07406121DC974012DFD74013EFE8D828E838FF0740C121DC98071
:20168600319001FBE0FDA3E0FEA3E0FF8D0274012EFB8F048A828B838CF07408121DC97469
:2016A600012DFD74013EFE8D828E838FF0740E121DC99001FBE0FDA3E0FEA3E0FF9001F53D
:2016C600E0FAA3E0FBA3E0FC900217EAF0EBA3F0ECA3F08D828E838FF01219DE9001F8E09C
:2016E600FDA3E0FEA3E0FF9001F8E0F5F0A3E045F0604A9001FBE0FAA3E0FBA3E0FC74025B
:201706002AF51974013BF51A8C1B7900E92519F51CE4351AF51D851B1EE92DFAE43EFB8FB5
:20172600048A828B838CF012335EFA851C82851D83851EF0121DC909B9100040CF9001FB2C
:1E174600E0FDA3E0FEA3E0FF74122DFD74013EFE8D828E838FF0E4121DC9A3021DC93E
:20176400AFF0AE83E582900203F0EEA3F0EFA3F0900203E0F574A3E0F575A3E0F576AA74CF
:20178400AB75AC769001FEE0F8A3E0F9A3E0FF900201E0F577A3E0F578AD77AE7815777485
:2017A400FFB577021578ED4E6020888289838FF012335EFEA3A882A9838A828B838CF0EEFD
:1417C400121DC9A3AA82AB8380CF8574828575838576F022C8
:200013007900E94400601B7A00903D6378B675C902E493F2A308B8000205C9D9F4DAF275EA
:02003300C9FF03
:2017D800AFF0AE83E582900207F0EEA3F0EFA3F0900207E0F57CA3E0F57DA3E0F57E7410D5
:2017F800257CFAE4357DFBAC7E900206E025E025E0F97800C001E8F57425E025E0257CF5D6
:2018180075E4357DF576857E77E875F03CA42AF578E43BF5798C7A757B00D001C002C00323
:20183800C004E57B2575FAE43576FBAC77E57B292578FDE43579FEAF7A8D828E838FF0129E
:20185800335EFD8A828B838CF012335EFF62058A828B838CF0ED121DC9057BC3E57B94048D
:15187800D004D003D00240B4E57404F8B80400500302180C2242
:20188D00E58290020AF0E0FFBF2400400475820122A2AF92D5C2AFD2FD8FFA20FCFDC2FDCF
:0818AD00A2D592AF7582002262
:2018B500E58290020BF090020CE4F090020BE0FF24F8401974075FF5F005F07401800225EC
:2018D500E0D5F0FBFE90020C5580F08058EF24F0401974075FF5F005F07401800225E0D539
:2018F500F0FBFE90020C5590F0803AEF24E8401974075FF5F005F07401800225E0D5F0FBF9
:20191500FE90020C55A0F0801CEF24E1401774075FF5F005F07401800225E0D5F0FBFF904B
:13193500020C55B0F090020CE06004758201227582002287
:0E194800E58290020DF0E0903A6493F5822261
:203A6400637C777BF26B6FC53001672BFED7AB76CA82C97DFA5947F0ADD4A2AF9CA472C0C7
:203A8400B7FD9326363FF7CC34A5E5F171D8311504C723C31896059A071280E2EB27B2758D
:203AA40009832C1A1B6E5AA0523BD6B329E32F8453D100ED20FCB15B6ACBBE394A4C58CFB6
:203AC400D0EFAAFB434D338545F9027F503C9FA851A3408F929D38F5BCB6DA2110FFF3D244
:203AE400CD0C13EC5F974417C4A77E3D645D197360814FDC222A908846EEB814DE5E0BDB94
:203B0400E0323A0A4906245CC2D3AC629195E479E7C8376D8DD54EA96C56F4EA657AAE0875
:203B2400BA78252E1CA6B4C6E8DD741F4BBD8B8A703EB5664803F60E613557B986C11D9E8B
:203B4400E1F8981169D98E949B1E87E9CE5528DF8CA1890DBFE6426841992D0FB054BB162B
:20195600900231740EF07402A3F0E4A3F090023404F0E4A3F075821712211890020EE0FFB3
:0C19760030E5047F0180027F008F822298
:20198200E582900215F0E0FF900216F0C2E990027D7401F0E4A3F090027F04F09002167518
:2019A200F000122C8090020FE0FDA3E0FEA3E0FF900212E0FBA3E0FC900214E0FA90027D69
:1C19C200EBF0ECA3F090027FEAF08D828E838FF0122C80D2E9900216E0F582228B
:2019DE00AFF0AE83E58290021AF0EEA3F0EFA3F0900217E0F524A3E0F525A3E0F5269002A4
:2019FE001AE0FAA3E0FBA3E0FC8A2174012BF5228C2379008521828522838523F012335EC1
:201A1E00F8C3E9984003021B1E74102AF8E43BFE8C07E928F527E43EF5288F29E975F00422
:201A3E00A4F52A85F02B2524F8E52B3525FEAF2688828E838FF012335E8527828528838587
:201A5E0029F0121DC9744C2AFDE43BFE8C07E92DF527E43EF5288F297401252AF8E4352B97
:201A7E00FFE82524F8EF3525FFAE2688828F838EF012335E8527828528838529F0121DC9D3
:201A9E0074882AFDE43BFE8C07E92DF527E43EF5288F297402252AF8E4352BFFE82524F803
:201ABE00EF3525FFAE2688828F838EF012335E8527828528838529F0121DC974C42AFDE478
:201ADE003BFE8C07E92DFDE43EFEC002C003C0047403252AF8E4352BFCE82524F8EC352533
:201AFE00FCAB2688828C838BF012335EF88D828E838FF0121DC909D004D003D002021A1285
:201B1E0074102AFDE43BFE8C07744C2AF527E43BF5288C2974882AF524E43BF5258C2674B7
:201B3E00C42AF52CE43BF52D8C2E74012AFA74013BFBC005C006C0078A828B838CF012330C
:201B5E005EF87F0008B800010FEFC825E0C833C825E0C833FF89057E00C3ED98EE64808F8F
:201B7E00F063F08095F0D007D006D005400122C002C003C004E914F82DFAE43EFB8F048A7B
:201B9E00828B838CF012335E90021DF0E82527FAE43528FBAC298A828B838CF012335E90D1
:201BBE00021EF0E82524FAE43525FBAC268A828B838CF012335E90021FF0E8252CF8E4359D
:201BDE002DFCAB2E88828C838BF012335EF8900220F08521828522838523F012335EF52A68
:201BFE00852AF0E98485F02FD004D003D002E52F7071C002C003C00490021D75F000C00785
:201C1E00C006C005C004C003C002C001122DC490021D75F000122388D001D002D003D004F3
:201C3E0090021DE0F88521828522838523F012335EFC8CF0E984F582C003C002C001C00010
:201C5E0012365CAC82D000D001D002D003D005D006D007EC620090021DE8F0D004D003D080
:201C7E00028030E52A24F9502A7404B52F2590021D75F000C007C006C005C004C003C002BE
:201C9E00C001122388D001D002D003D004D005D006D007C002C003C004E92DF530E43EF541
:201CBE00318F328521828522838523F012335EFAE9C39A2DFAE43EFB8F0490021DE0F88A5F
:201CDE00828B838CF012335E62008530828531838532F0E8121DC9E92527F530E43528F54E
:201CFE00318529328521828522838523F012335EF8E9C3982527F8E43528FBAC2990021EE7
:201D1E00E0FA88828B838CF012335E62028530828531838532F0EA121DC9E92524F530E4FC
:201D3E003525F5318526328521828522838523F012335EF8E9C3982524F8E43525FBAC2613
:201D5E0090021FE0FA88828B838CF012335E62028530828531838532F0EA121DC9E9252C0C
:201D7E00F530E4352DF531852E328521828522838523F012335EF8E9C398252CF8E4352D77
:201D9E00FBAC2E900220E0FA88828B838CF012335EF862028530828531838532F0EA121D01
:0B1DBE00C909D004D003D002021B5062
:1B1DC90020F71130F6138883A88220F509F6A8837583002280FEF280F5F02219
:201DE400AFF0AE83E582900225F0EEA3F0EFA3F0900225E0FDA3E0FEA3E0FF900222E0FBD8
:201E0400A3E0FC90020FEDF0EEA3F0EFA3F0900212EBF0ECA3F0900214E4F07582A0121984
:1A1E240082AF82900224E0600C20E80BC00712364BD0078002C2E88F82224C
:201E3E00E582900229F0E0FF24F85003021EC1900228E0FE30E04CEE30E11574075FF5F07C
:201E5E0005F07401800225E0D5F0FBFD4280801474075FF5F005F07401800225E0D5F0FBF0
:201E7E00F4FD528074075FFD74075DFC74E05E4CF59E8DF005F07401800225E0D5F0FBF423
:201E9E0052932274075FFD74075D4410FC74E05E4CF59E8DF005F07401800225E0D5F0FB5F
:201EBE00429322EF24F05003021F3D900228E0FE30E04CEE30E11574075FF5F005F0740128
:201EDE00800225E0D5F0FBFD4290801474075FF5F005F07401800225E0D5F0FBF4FD5290F7
:201EFE0074075FFD74075DFC74E05E4CF59F8DF005F07401800225E0D5F0FBF452942274E9
:201F1E00075FFD74075D4410FC74E05E4CF59F8DF005F07401800225E0D5F0FB429422EF71
:201F3E0024E85003021FB9900228E0FE30E04CEE30E11574075FF5F005F07401800225E092
:201F5E00D5F0FBFD42A0801474075FF5F005F07401800225E0D5F0FBF4FD52A074075FFD06
:201F7E0074075DFC74E05E4CF5978DF005F07401800225E0D5F0FBF452952274075FFD746F
:201F9E00075D4410FC74E05E4CF5978DF005F07401800225E0D5F0FB429522EF24E1407317
:201FBE00900228E0FE30E04CEE30E11574075FF5F005F07401800225E0D5F0FBFD42B0801C
:201FDE001474075FF5F005F07401800225E0D5F0FBF4FD52B074075FFD74075DFC74E05E0F
:201FFE004CF58F8DF005F07401800225E0D5F0FBF452962253070774075F4410FD74E05E89
:14201E004DF58F8FF005F07401800225E0D5F0FBFF429622B4
:20203200AF83E58290022FF0EFA3F090022AE0FEA3E0FF4E70047582012290022FE0FCA38A
:20205200E0FD7A007B00C3EA9EEB9F5034EA2CF8EB3DF988828983C007C006C005C004C028
:2020720003C0021229A7E582D002D003D004D005D006D0077004758201220ABA00C80B80A0
:20209200C590022FE0FCA3E0FD90022CE0F9A3E0FAA3E0FBE4F533F534C3E5339EE5349F54
:2020B2005060C006C007E5332CF535E5343DF536E53329F8E5343AFE8B0788828E838FF02C
:2020D20012335E90026AF0853582853683C007C006C005C004C003C002C001122898E58250
:2020F200D001D002D003D004D005D006D007D007D0066004758201220533E4B5339B0534FF
:0621120080977582002297
:20211800E582900236F0E0FF53071F900231E0FCA3E0FDA3E0FE900234E0FAA3E0FB9002E0
:1C2138000FECF0EDA3F0EEA3F0900212EAF0EBA3F09002147401F08F82021982EA
:20215400AA83AB828BF0900237E0A4F8A9F08AF0E0A429F98BF0A3E0A429F5838882222207
:20217400C2E89002317439F07402A3F0E4A3F090023404F0E4A3F075820012211890023983
:20219400E0FF20E1012290023974FD5FF09001E77439F07402A3F0E4A3F09001EA04F0E4B5
:0821B400A3F07582000214C5BE
:2021BC00AFF0AE83E582900240F0EEA3F0EFA3F0900240E0FDA3E0FEA3E0FF90023AE0F5B4
:2021DC003BA3E0F53CA3E0F53D7900E9F825E025E0FC2DF537E43EF5388F39753A00C005FB
:2021FC00C006C007E53A2537FDE43538FEAF3988037C00E53A75F004A42BFBEC35F0FCEB36
:20221C00253BFBEC353CFCAA3D8B828C838AF012335EFB8D828E838FF0121DC9053AC3E555
:20223C003A9404D007D006D00540B3E804F9B90400409874012DFA74013EFB8F048A828B4D
:20225C00838CF012335E900206F08D828E838FF0C007C006C005C004C003C0021217D8D02D
:20227C0002D003D004D005D006D0078A828B838CF012335EFA14FC8D828E838FF0C007C0AE
:20229C0006C005C004122EF2D004D005D006D0078D828E838FF0C007C006C005C004123113
:2022BC0062D004D005D006D007900206ECF08D828E838FF0C007C006C005C0041217D8D050
:2022DC0004D005D006D007EC601C8D828E838FF0C007C006C005C0041236AAD004D005D0D4
:2022FC0006D0071C809190023DE0FAA3E0FBA3E0FC7900C002C003C004E9F825E025E02D38
:20231C00F53BE43EF53C8F3D753A00D004D003D002C005C006C00788067F00E53A75F00443
:20233C00A42EFEEF35F0FFEE2AF537EF3BF5388C39E53A253BFDE4353CFEAF3D8D828E8363
:20235C008FF012335E8537828538838539F0121DC9053AC3E53A9404D007D006D00540B1EF
:0C237C00E804F9B90400500302230F220A
:20238800AFF0AE83E582900243F0EEA3F0EFA3F0900243E0FDA3E0FEA3E0FF8D828E838FD2
:2023A800F012335EF582C007C006C005121948AC82D005D006D0078D828E838FF0EC121DDC
:2023C800C974012DFAE43EFB8F048A828B838CF012335EF582C007C006C005C004C003C097
:2023E80002121948A982D002D003D004D005D006D0078A828B838CF0E9121DC974022DFA26
:20240800E43EFB8F048A828B838CF012335EF582C007C006C005C004C003C002121948A99D
:2024280082D002D003D004D005D006D0078A828B838CF0E9121DC974032DFDE43EFE8D82D0
:202448008E838FF012335EF582C007C006C005121948AC82D005D006D0078D828E838FF0B6
:04246800EC021DC99C
:20246C00E58290024DF0E025E0FF74FE5F4401FF900297E4F08F8212311EAF82BF010712A8
:20248C00342175820122900246E0FDA3E0FEA3E0FF900249E0F9A3E0FAA3E0FBA3E0FCE4F7
:2024AC00F53EF53FF540F541C3E53E99E53F9AE5409BE5419C400302257BC005C006C00748
:2024CC00E924FFF8EA34FFFDEB34FFFEEC34FFFFE8B53E0EEDB53F0AEEB54006EFB54102F4
:2024EC008008D007D006D005800ED007D006D00590024E7401F0800690024E7403F0C001E3
:20250C00C002C003C004E53E2DF8E53F3EFB8F0490024EE0FA900293F088828B838CF0C00B
:20252C0007C006C005C003C002C0011230D3AC82D001D002D003D005D006D007BC0102803D
:20254C000AD004D003D002D001800FD004D003D002D00112342175820122053EE4B53E0C9B
:13256C00053FB53F070540B5400205410224B475820022A8
:20257F00E58290024FF09002317450F07402A3F0E4A3F090023404F0E4A3F07582001221B2
:20259F0018900250E0FF74015FFEBE0102802290025074014FF09001E77450F07402A3F043
:2025BF00E4A3F09001EA04F0E4A3F07582001214C590024FE0600B20E80AD2E8900004022F
:0525DF003220C2E822D9
:2025E400E58290025CF0E0FF900251E0FCA3E0FDA3E0FE900254E0FB90026FECF0EDA3F0D5
:20260400EEA3F0900272EBF08F82C007122929AE82D007BE010743E2207582012290025507
:20262400E0F546A3E0F547A3E0F548900258E0F8A3E0F9A3E0FAA3E0FBE4F542F543F54437
:20264400F545C3E54298E54399E5449AE5459B40030226E8C007E824FFFCE934FFFDEA3419
:20266400FFFEEB34FFFFECB5420EEDB5430AEEB54406EFB545028004D007800AD007900236
:202684005D7401F0800690025D7403F0E5422546FCE5433547FDAE488C828D838EF0123392
:2026A4005EFC90025DE0900297F08C82C007C003C002C001C00012311EAE82D000D001D0F7
:2026C40002D003D007BE010743E220758201220542E4B5420C0543B543070544B544020567
:2026E40045022646EF2FFF5307FE9002977402F08F82C00712311EAE82D007BE010280EAB4
:0427040075820022B8
:20270800AF83E582900260F0EFA3F0900260E0FEA3E0FF33E433FD6009C3E49EFBE49FFCF3
:2027280080048E038F0490025EE0FEA3E0FF33E433FA6009C3E49EF8E49FF980048E008F92
:2027480001900264E8F0E9A3F08B828C83C005C0021227FEAE82AF83D002D005EA6D600C80
:11276800C3E49EFCE49FFD8C828D83228E828F83221B
:20003B007800E84400600A790175C900E4F309D8FC78B5E84402600C7903900001E4F0A3E0
:04005B00D8FCD9FAFA
:202779009002627470F09001E77462F07402A3F0E4A3F09001EA04F0E4A3F07582071214B0
:04279900C5C2C122D2
:20279D00A2E8E433FF9002317463F07402A3F0E4A3F090023404F0E4A3F0758200C0071271
:2027BD002118D007900263E0FE20E00122C2E890026374FE5EF09001E77463F07402A3F04F
:2027DD00E4A3F09001EA04F0E4A3F0758200C0071214C5D007EF6008D2E890000402322006
:0127FD0022B9
:2027FE00AF83E582900266F0EFA3F0900268E4F0A3F0900264E0FEA3E0FF7D10900266E09C
:20281E00FBA3E0FC339201ECCB25E0CB33FC900266EBF0ECA3F0900268E0FBA3E0CB25E02A
:20283E00CB33FC900268EBF0ECA3F0300112900268E0FBA3E0FC90026874014BF0ECA3F06C
:20285E00900268E0FBA3E0FCC3EB9EEC9F401D900268EBC39EF0EC9FA3F0900266E0FBA308
:1A287E00E0FC90026674014BF0ECA3F0DD8E900266E0FEA3E08E82F58322CF
:20289800AF83E58290026BF0EFA3F090026BE0FEA3E0FF8E828F83C007C0061229A7E582C3
:2028B800D006D007700475820122900283746DF07402A3F0E4A3F08E828F83C007C006129E
:2028D8002D20D006D00790026DE0FDBD2400400475820122A2AF92D5C2AF90026EE587F046
:2028F800BD200050054387108008BD240050035387EFD2FD90026AE0FD8E828F83F020FC59
:11291800FDC2FD90026EE0F587A2D592AF75820022C5
:20292900E582900273F0E025E0FF5307FE900297E4F08F8212311EAF82BF010743E22075D5
:2029490082012290026FE0FDA3E0FEA3E0FF900272E0FC7B00C3EB9C5040EB2DF8E43EF988
:202969008F02888289838AF012335EF89002977403F08882C007C006C005C004C0031231DC
:1E2989001EAA82D003D004D005D006D007BA010743E220758201220B80BB758200223D
:2029A700AF83E582900274F0EFA3F0900274E0FEA3E0FFC374FF9E743F9F40047582012215
:1F29C70074062F500DC374FF9E74FB9F40047582012274042F500475820122758200227D
:2029E600AFF0AE83E582900276F0EEA3F0EFA3F0900276E0FDA3E0FEA3E0FF74042DF54FCE
:202A0600E43EF5508F5174082DF549E43EF54A8F4B740C2DF54CE43EF54D8F4E7900E92D89
:202A2600F8E43EFB8F0488828B838CF012335EF552900279F0C005C006C007E9254FF55378
:202A4600E43550F5548551558553828554838555F012335E90027AF0E92549F556E4354A6F
:202A6600F557854B588556828557838558F012335E90027BF0E9254CFDE4354DFEAF4E8D6E
:202A8600828E838FF012335E90027CF090029D7402F0855282C007C006C005C004C003C0F6
:202AA60001C00012320D85825290027CE0FA90029D7401F08A8212320DE582625290027BA4
:202AC600E0FA90029D7401F08A8212320DE582625290027AE0FA90029D7403F08A8212323E
:202AE6000DAA82D000D001D003D004E552620288828B838CF0EA121DC990027AE0FC9002C4
:202B06009D7402F08C82C00112320DAC82D001900279E0FB90029D7401F08B82C004C00181
:202B260012320DAB82D001D004EB620490027CE0FB90029D7401F08B82C004C00112320DBB
:202B4600AB82D001D004EB620490027BE0FB90029D7403F08B82C004C00112320DAB82D0EE
:202B660001D004EB62048553828554838555F0EC121DC990027BE0FC90029D7402F08C8239
:202B8600C00112320DAC82D00190027AE0FB90029D7401F08B82C004C00112320DAB82D0C3
:202BA60001D004EB6204900279E0FB90029D7401F08B82C004C00112320DAB82D001D004BA
:202BC600EB620490027CE0FB90029D7403F08B82C004C00112320DAB82D001D004EB620419
:202BE6008556828557838558F0EC121DC990027CE0FC90029D7402F08C82C00112320DAC17
:202C060082D00190027BE0FB90029D7401F08B82C004C00112320DAB82D001D004EB6204D9
:202C260090027AE0FB90029D7401F08B82C004C00112320DAB82D001D004EB620490027902
:202C4600E0FB90029D7403F08B82C004C00112320DAB82D001D004D005D006D007EB620475
:1A2C66008D828E838FF0EC121DC909B90400D007D006D0055003022A2422C4
:202C8000AFF0AE83E582900280F0EEA3F0EFA3F0900280E0FDA3E0FEA3E0FF90027FE0FC19
:202CA00090027DE0FAA3E0FB78007900C3E89AE99B505FC002C003E82DF559E93EF55A8F57
:202CC0005B855982855A83855BF012335EFBF582C007C006C005C004C003C002C001C000D6
:202CE00012328785825CD000D001D002D003D004D005D006D007D003D002EC600E855982AB
:132D0000855A83855BF0E55C121DC908B8009D09809A22B3
:0D2D1300AC83AB827A007900748E0233EF3E
:202D2000AF83E582900286F0EFA3F0900286E0FEA3E0FF8E828F83C007C0061229A7E58200
:202D4000D006D007700475820122C374FF9E743F9F401D900283E0FBA3E0FCA3E0FDEFC314
:202D600013F97A008B828C838DF0E9121DC9805074062F502BC374FF9E74FB9F4022900289
:202D800083E0FBA3E0FCA3E0FD8E01EF2406F97A00742029F98B828C838DF0121DC98020D4
:202DA000900283E0FBA3E0FCA3E0FDEF2404C313FE7F0074222EFE8B828C838DF0121DC967
:042DC00075820022F6
:202DC400AFF0AE83E582900288F0EEA3F0EFA3F0900288E0FDA3E0FEA3E0FF8D828E838F02
:202DE400F012335EF57474012DF575E43EF5768F778575828576838577F012335E8D828E0E
:202E0400838FF0121DC974022DF8E43EFB8F0488828B838CF012335E85758285768385773C
:202E2400F0121DC974032DFDE43EFE8D828E838FF012335E88828B838CF0121DC98D828E7A
:082E4400838FF0E574021DC943
:0B2E4C007F8E123946F58385F082224C
:202E5700AF83E58290028BF0EFA3F0741F55D1FF90028BE0FDA3E0FEFC74E05C4FF5D1E55A
:132E7700D28DD274FC55D3FF74035C4FF5D3000000002274
:202E8A00E58290028DF0E0FF24F8401374075FF5F005F07401800225E0D5F0FB628022EF01
:202EAA0024F0401374075FF5F005F07401800225E0D5F0FB629022EF24E8401374075FF500
:202ECA00F005F07401800225E0D5F0FB62A022EF24E1401374075FF5F005F074018002250C
:082EEA00E0D5F0FBFF62B0220D
:202EF200AFF0AE83E58290028EF0EEA3F0EFA3F090028EE0FDA3E0FEA3E0FF74042DF57567
:202F1200E43EF5768F778575828576838577F012335EF57474072DF578E43EF5798F7A85E7
:202F32007882857983857AF012335E8575828576838577F0121DC974062DF575E43EF576F6
:202F52008F778575828576838577F012335E857882857983857AF0121DC974052DF8E43E29
:202F7200F98F04888289838CF012335E8575828576838577F0121DC9888289838CF0E574B5
:202F9200121DC974082DF575E43EF5768F778575828576838577F012335EF578740A2DF8E8
:202FB200E43EF98F04888289838CF012335E8575828576838577F0121DC9888289838CF0AC
:202FD200E578121DC974092DF575E43EF5768F778575828576838577F012335EF578740B6E
:202FF2002DF8E43EF98F04888289838CF012335E8575828576838577F0121DC988828983C3
:203012008CF0E578121DC9740C2DF575E43EF5768F778575828576838577F012335EF5782D
:20303200740D2DF57BE43EF57C8F7D857B82857C83857DF012335E8575828576838577F040
:20305200121DC9740E2DFAE43EFB8F048A828B838CF012335E857B82857C83857DF0121DAD
:20307200C9740F2DFDE43EFE8D828E838FF012335E8A828B838CF0121DC98D828E838FF039
:05309200E578021DC9F4
:20309700AF83E582900291F0EFA3F0900291E0FEA3E0FF7C007D00C3EC9EED9F501D900396
:1C30B700E8C007C006C005C004123220D004D005D006D0070CBC00DF0D80DC2213
:2030D300AFF0AE83E582900294F0EEA3F0EFA3F0900293E0FFF582C00712363AD0078F82E1
:2030F30012397F123993AF82900294E0FCA3E0FDA3E0FE8C828D838EF0E5DA121DC9EF306F
:0B311300E1047F0180027F008F822218
:20311E00E582900298F0900297E0FFF582C00712363AD007900298E0F5DA8F8212397F12AB
:10313E003993E58230E1047F0180027F008F822285
:14314E00E582900299F074F855ADFFE0FE74075E4FF5AD22B4
:20316200AFF0AE83E58290029AF0EEA3F0EFA3F090029AE0FDA3E0FEA3E0FF7B007C008B69
:203182005D8C5E8B00ECC825E0C833C825E0C833FAE82DF561EA3EF5628F63E4F55FF5607C
:2031A200C005C006C007E55F2561FDE5603562FEAF638D828E838FF012335EF582C007C0C8
:2031C20006C005123413AA82D005D006D0078D828E838FF0EA121DC9055FE4B55F020560D7
:2031E200C3E55F9404E56064809480D007D006D00540AD7401255DFBE4355EFCC3EB9404D7
:0B320200EC64809480500302318122B4
:13320D00E58290029EF0E0F5DD90029DE0F5DE85DF82228B
:20322000AF83E58290029FF0EFA3F090029FE0FEA3E0FF90029FE0F5F0A3E045F070012280
:203240001EBEFF011F90029FEEF0EFA3F090029FE0FEA3E0FF7C007D00C3EC9EED9F500926
:0A32600000000CBC00F30D80F0220A
:1D326A00E5829002A1F0E0F58212396B744055D3FFBF400280F685D58285D4832284
:14328700E5829002A2F0E0F5E7E5E630E2FBC2C085E7822282
:20329B0012360C30D502B2D1BF0009BC00030239EA0239DDBC00030239C7E583B4FF0BE5A5
:2032BB0082B4FF030239EA0239C7E582B4FF030239DDC395835007247F400B0239C7248099
:2032DB001450030239DDF582C3ED9AEE9BEF9C40111582C3EA33F9EB33FAEC33FBE433FC79
:2032FB008005E4CCCBCAF9C08275F019C3E99DEA9EEB9FEC9400D5F002802D400EE99DF914
:20331B00EA9EFAEB9FFBEC9400FCC3B3E833F8E58233F582E58333F583C3E933F9EA33FA73
:20333B00EB33FBEC33FC80C4B3E4F938FAE43582FBE43583FCD082500405827C8012367326
:03335B000239BE76
:0D00060075817E1236A6E5826003020003BC
:1C335E0020F71430F6148883A88220F507E6A88375830022E280F7E49322E0227E
:20337A00E5829002A3F0E0FF24F8401474075FF5F005F07401800225E0D5F0FBF452802200
:20339A00EF24F0401474075FF5F005F07401800225E0D5F0FBF4529022EF24E8401474078A
:2033BA005FF5F005F07401800225E0D5F0FBF452A022EF24E1401474075FF5F005F0740185
:0C33DA00800225E0D5F0FBF4FF52B02289
:2033E600FCABF0AA83A982749EF582C2D1EC30E716D2D1E9F42401F9EAF43400FAEBF434E6
:0D34060000FBECF43400FC1236730239A612
:0E341300E5829002A4F0E0903B6493F58222E3
:203B640052096AD53036A538BF40A39E81F3D7FB7CE339829B2FFF87348E4344C4DEE9CBD5
:203B8400547B9432A6C2233DEE4C950B42FAC34E082EA16628D924B2765BA2496D8BD125DF
:203BA40072F8F66486689816D4A45CCC5D65B6926C704850FDEDB9DA5E154657A78D9D84A1
:203BC40090D8AB008CBCD30AF7E45805B8B34506D02C1E8FCA3F0F02C1AFBD0301138A6BBF
:203BE4003A9111414F67DCEA97F2CFCEF0B4E67396AC7422E7AD3585E2F937E81C75DF6E07
:203C040047F11A711D29C5896FB7620EAA18BE1BFC563E4BC6D279209ADBC0FE78CD5AF446
:203C24001FDDA8338807C731B11210592780EC5F60517FA919B54A0D2DE57A9F93C99CEFF4
:203C4400A0E03B4DAE2AF5B0C8EBBB3C83539961172B047EBA77D626E169146355210C7DB0
:203421009002A5E5E2F0C284C2855380EF43802053E2F374F355E24404F5E253E2FE9000C3
:20344100051232205380DF900005123220438010900005123220438020900005123220901F
:0634610002A5E0F5E222E5
:20346700AFF0AE83E5829002A6F0EEA3F0EFA3F09002A6E0FDA3E0FEA3E0FF74042DF575BC
:20348700E43EF5768F778575828576838577F012335EF57474052DF578E43EF5798F7A856F
:2034A7007882857983857AF012335E8575828576838577F0121DC974062DF575E43EF5767C
:2034C7008F778575828576838577F012335E857882857983857AF0121DC974072DF8E43EAD
:2034E700F98F04888289838CF012335E8575828576838577F0121DC9888289838CF0E5743B
:20350700121DC974082DF575E43EF5768F778575828576838577F012335EF578740A2DF86D
:20352700E43EF98F04888289838CF012335E8575828576838577F0121DC9888289838CF031
:20354700E578121DC974092DF575E43EF5768F778575828576838577F012335EF578740BF3
:203567002DF8E43EF98F04888289838CF012335E8575828576838577F0121DC98882898348
:203587008CF0E578121DC9740C2DF575E43EF5768F778575828576838577F012335EF578B3
:2035A700740F2DF57BE43EF57C8F7D857B82857C83857DF012335E8575828576838577F0C4
:2035C700121DC9740E2DFAE43EFB8F048A828B838CF012335E857B82857C83857DF0121D33
:2035E700C9740D2DFDE43EFE8D828E838FF012335E8A828B838CF0121DC98D828E838FF0C1
:05360700E578021DC979
:20360C00AA82AB83A2F73392D1F5826002D2F7ACF0E58124F9F8E6FD08E6FE0886F008E621
:0E362C00A2F73392D5F5836002D2F7AFF022F9
:11363A00E5829002A9F0E0FF6003BF020343E2102290
:11364B00D2E8900004123220900064123220C2E82298
:17365C00E5829002AAF0E0FFBFFF0475820022EF903C6493F58222BF
:203C64008D01020408102040801B366CD8AB4D9A2F5EBC63C697356AD4B37DFAEFC5913969
:203C840072E4D3BD61C29F254A943366CC831D3A74E8CB8D01020408102040801B366CD8EE
:203CA400AB4D9A2F5EBC63C697356AD4B37DFAEFC5913972E4D3BD61C29F254A943366CC3A
:203CC400831D3A74E8CB8D01020408102040801B366CD8AB4D9A2F5EBC63C697356AD4B3FD
:203CE4007DFAEFC5913972E4D3BD61C29F254A943366CC831D3A74E8CB8D010204081020EE
:203D040040801B366CD8AB4D9A2F5EBC63C697356AD4B37DFAEFC5913972E4D3BD61C29FEC
:203D2400254A943366CC831D3A74E8CB8D01020408102040801B366CD8AB4D9A2F5EBC63B7
:1F3D4400C697356AD4B37DFAEFC5913972E4D3BD61C29F254A943366CC831D3A74E8CBD7
:203673007804EC7011E58224F8500AF582E4C9CACBFCD8EF22EC7820058220E713D5820156
:1336930022C3E933F9EA33FAEB33FBEC33FCD8EA15822264
:0436A6007582002207
:2036AA00AFF0AE83E5829002ABF0EEA3F0EFA3F09002ABE0FDA3E0FEA3E0FF74042DF56A78
:2036CA00E43EF56B8F6C74082DF564E43EF5658F66740C2DF567E43EF5688F697900E92DE1
:2036EA00F8E43EFB8F0488828B838CF012335EF56D9002AEF0C005C006C007E9256AF56E22
:20370A00E4356BF56F856C70856E82856F838570F012335E9002AFF0E92564F571E435655B
:20372A00F5728566738571828572838573F012335E9002B0F0E92567FDE43568FEAF698D75
:20374A00828E838FF012335E9002B1F090029D740EF0856D82C007C006C005C004C003C0C9
:20376A0001C00012320D85826D9002B1E0FA90029D7409F08A8212320DE582626D9002B02B
:20378A00E0FA90029D740DF08A8212320DE582626D9002AFE0FA90029D740BF08A82123209
:2037AA000DAA82D000D001D003D004E56D620288828B838CF0EA121DC99002AFE0FC9002A3
:2037CA009D740EF08C82C00112320DAC82D0019002AEE0FB90029D7409F08B82C004C00168
:2037EA0012320DAB82D001D004EB62049002B1E0FB90029D740DF08B82C004C00112320DAA
:20380A00AB82D001D004EB62049002B0E0FB90029D740BF08B82C004C00112320DAB82D0E0
:20382A0001D004EB6204856E82856F838570F0EC121DC99002B0E0FC90029D740EF08C82D6
:20384A00C00112320DAC82D0019002AFE0FB90029D7409F08B82C004C00112320DAB82D0B5
:20386A0001D004EB62049002AEE0FB90029D740DF08B82C004C00112320DAB82D001D004A8
:20388A00EB62049002B1E0FB90029D740BF08B82C004C00112320DAB82D001D004EB62040B
:2038AA008571828572838573F0EC121DC99002B1E0FC90029D740EF08C82C00112320DACB4
:2038CA0082D0019002B0E0FB90029D7409F08B82C004C00112320DAB82D001D004EB6204CC
:2038EA009002AFE0FB90029D740DF08B82C004C00112320DAB82D001D004EB62049002AEBC
:20390A00E0FB90029D740BF08B82C004C00112320DAB82D001D004D005D006D007EB62049C
:1A392A008D828E838FF0EC121DC909B90400D007D006D00550030236E82223
:203944007F9E123A5230D1030239C7C3EF9582500974FFF5F0F583F582227900123A0F89BA
:07396400828A838BF0EC2244
:14396B00E5829002B2F0E0F5821239F543D38000000000225E
:14397F00E5829002B3F0E0FFBF01028003BF020343E2202249
:1339930010C20280FB9002B4E5E1F0E0FF30E0F08F8222C4
:2039A600B98003EA13B34010EA2401FAE43BFBE43CFC50047C800582BC000EBB000BBA0065
:2039C60008E4F5F0F583F58222A2D1E582138CF092F78B838A8222E4F583F58275F080F425
:0F39E600A2D11322E4F583F58275F0C0747F221D
:1A39F500E5829002B5F0E0FF740F5FF074C355D3FFE025E025E04FF5D322E8
:203A0F006040F82582500274FFF582E824F8501ECCCBCAF9E4CC24F85014CBCAF9E4CB24BF
:203A2F00F8500BCAF9E4CA24F8500379002224086010F8C3EC13FCEB13FBEA13FAE913F972
:033A4F00D8F12289
:123A5200AA82AB83A2F73392D1F5826002D2F7ACF02279
:00000001FF
