:03000000020006F5
:03005F0002000399
:030003000228369A
:20006200AF83E582900001F0EFA3F0900001E0FEA3E0FF4E7001221EBEFF011F900001EE96
:20008200F0EFA3F0900001E0FEA3E0FF7C007D00C3EC9EED9F500900000CBC00F30D80F098
:2000A20022AF83E582900003F0EFA3F0900003E0FEA3E0FF7C007D00C3EC9EED9F501D90BC
:2000C20003E8C007C006C005C0041200DFD004D005D006D0070CBC00DF0D80DC22AF83E58D
:2000E20082900005F0EFA3F0900005E0FEA3E0FF7C007D00C3EC9EED9F501D9003E8C007FF
:20010200C006C005C004120062D004D005D006D0070CBC00DF0D80DC22E582900008F0E0C3
:20012200FF24F850030201A0900007E0FEFDED30E04CEE30E11574075FF5F005F074018034
:200142000225E0D5F0FBFD4280801474075FF5F005F07401800225E0D5F0FBF4FD528074DC
:20016200075FFD74075DFC74E05E4CF59E8DF005F07401800225E0D5F0FBF4529322740711
:200182005FFD74075D4410FC74E05E4CF59E8DF005F07401800225E0D5F0FB429322EF2410
:2001A200F0500302021E900007E0FEFDED30E04CEE30E11574075FF5F005F0740180022539
:2001C200E0D5F0FBFD4290801474075FF5F005F07401800225E0D5F0FBF4FD529074075FFD
:2001E200FD74075DFC74E05E4CF59F8DF005F07401800225E0D5F0FBF452942274075FFD99
:2002020074075D4410FC74E05E4CF59F8DF005F07401800225E0D5F0FB429422EF24E850B1
:200222000302029C900007E0FEFDED30E04CEE30E11574075FF5F005F07401800225E0D5C5
:20024200F0FBFD42A0801474075FF5F005F07401800225E0D5F0FBF4FD52A074075FFD74A0
:20026200075DFC74E05E4CF5978DF005F07401800225E0D5F0FBF452952274075FFD740715
:200282005D4410FC74E05E4CF5978DF005F07401800225E0D5F0FB429522EF24E1407590C5
:2002A2000007E0FEFDED30E04CEE30E11574075FF5F005F07401800225E0D5F0FBFD42B09E
:2002C200801474075FF5F005F07401800225E0D5F0FBF4FD52B074075FFD74075DFC74E026
:2002E2005E4CF58F8DF005F07401800225E0D5F0FBF452962253070774075F4410FD74E0C2
:200302005E4DF58F8FF005F07401800225E0D5F0FBFF429622E582900009F0E0FF24F84058
:200322001474075FF5F005F07401800225E0D5F0FBF4528022EF24F0401474075FF5F00534
:20034200F07401800225E0D5F0FBF4529022EF24E8401474075FF5F005F07401800225E0F8
:20036200D5F0FBF452A022EF24E1401474075FF5F005F07401800225E0D5F0FBF4FF52B006
:2003820022E58290000AF0E0FF24F8401374075FF5F005F07401800225E0D5F0FB428022A6
:2003A200EF24F0401374075FF5F005F07401800225E0D5F0FB429022EF24E8401374075F59
:2003C200F5F005F07401800225E0D5F0FB42A022EF24E1401374075FF5F005F0740180028F
:2003E20025E0D5F0FBFF42B022E58290000BF090000CE4F090000BE0FF24F8401974075FF8
:20040200F5F005F07401800225E0D5F0FBFE90000C5580F08058EF24F0401974075FF5F0F2
:2004220005F07401800225E0D5F0FBFE90000C5590F0803AEF24E8401974075FF5F005F0D8
:200442007401800225E0D5F0FBFE90000C55A0F0801CEF24E1401774075FF5F005F074014F
:20046200800225E0D5F0FBFF90000C55B0F090000CE0FF60047582012275820022E582909A
:20048200000EF090000DE0FF30E74190000EE0FEBE080BADA674C75D4408F5A68020BE10FB
:2004A2000BADA674C75D4410F5A68012BE200BAEA674C75E4420F5A6800475820022AE881B
:2004C2005306FE530701EF4EF588801F90000EE0FFBF08028008BF10028003BF2009AFA6B0
:2004E20074C75FF5A680047582002275820122AF83E582900010F0EFA3F043E201E5E290E6
:200502000010E0FEA3E0FF8E058DE2ADE15305DF8F04530420EC4DF5E1E5E220E10690002B
:200522000FE0F5D9EE20E007AFE274FE5FF5E243A60422E582900019F0E025E0FF74FE5F0A
:200542004401FF90002EE4F08F82120784AF82BF010712072D75820122900012E0FDA3E0BB
:20056200FEA3E0FF900015E0F9A3E0FAA3E0FBA3E0FCE4F521F522F523F524C3E52199E578
:20058200229AE5239BE5249C4003020644C005C006C007E924FFF8EA34FFFDEB34FFFEEC4E
:2005A20034FFFFE8B5210EEDB5220AEEB52306EFB524028008D007D006D005800ED007D098
:2005C20006D00590001A7401F0800690001A7403F0C001C002C003C004E5212DF8E5223E1E
:2005E200FB8F0490001AE0FA900029F088828B838CF0C007C006C005C003C002C0011206FA
:20060200E2AC82D001D002D003D005D006D007BC0102800AD004D003D002D001800FD004DA
:20062200D003D002D00112072D758201220521E4B5210C0522B522070523B52302052402C4
:20064200057D75820022E58290001BF0E0FFFEBE00028003BF020343E21022E58290001CAD
:20066200F0E0FFBF01028003BF020343E22022E582900028F0E0FF90001DE0FCA3E0FDA39F
:20068200E0FE900020E0FB900030ECF0EDA3F0EEA3F0900033EBF08F82C0071207B4AE82DF
:2006A200D007BE010475820122900021E0FCA3E0FDA3E0FE900024E0F8A3E0F9A3E0FAA3CE
:2006C200E0FB900012ECF0EDA3F0EEA3F0900015E8F0E9A3F0EAA3F0EBA3F08F820205357D
:2006E200AFF0AE83E58290002AF0EEA3F0EFA3F0900029E0FFF582C007120648D0078F82F6
:2007020012065D120956AF8290002AE0FCA3E0FDA3E0FE8C828D838EF0E5DA122BCAEF30A8
:20072200E1047F0180027F008F822290002DE5E2F0C284C286AF8074DF5FF580438040AF14
:20074200E274F35FF5E2AFE274F35F4404F5E2AFE274FE5FF5E2900005120062AF8074BFFE
:200762005FF58090000512006243802090000512006243804090000512006290002DE0F510
:20078200E222E58290002FF090002EE0FFF582C007120648D00790002FE0F5DA8F82120694
:2007A2005D120956E58230E1047F0180027F008F8222E582900034F0E025E0FF5307FE9052
:2007C200002EE4F08F82120784AF82BF010743E22075820122900030E0FDA3E0FEA3E0FF70
:2007E200900033E0FC7B00C3EB9C5040EB2DF8E43EF98F02888289838AF0122E57F8900098
:200802002E7403F08882C007C006C005C004C003120784AA82D003D004D005D006D007BAB2
:20082200010743E220758201220B80BB75820022E582900040F0E0FF900035E0FCA3E0FDC9
:20084200A3E0FE900038E0FB900030ECF0EDA3F0EEA3F0900033EBF08F82C0071207B4AEE4
:2008620082D007BE010743E22075820122900039E0F529A3E0F52AA3E0F52B90003CE0F848
:20088200A3E0F9A3E0FAA3E0FBE4F525F526F527F528C3E52598E52699E5279AE5289B40F6
:2008A20003020936C007E824FFFCE934FFFDEA34FFFEEB34FFFFECB5250EEDB5260AEEB58A
:2008C2002706EFB528028004D007800AD0079000417401F080069000417403F0E525252913
:2008E200FCE526352AFDAE2B8C828D838EF0122E57FC900041E090002EF08C82C007C00394
:20090200C002C001C000120784AE82D000D001D002D003D007BE010743E22075820122057E
:2009220025E4B5250C0526B526070527B527020528020894EF2FFF5307FE90002E7402F04B
:200942008F82C007120784AE82D007BE010280EA7582002210C20280FB900042E5E1F0E01E
:20096200FF30E0F08F8222AFF0AE83E582900045F0EEA3F0EFA3F0C2E8900045E0FDA3E065
:20098200FEA3E0FF900043E0FBA3E0FC90005BEDF0EEA3F0EFA3F090005EEBF0ECA3F09005
:2009A20000607401F0758261120B98AF82D2E8900004C007120062D0078F8222E5829000A8
:2009C20049F0120A6190004AE4F090004B744AF07400A3F0E4A3F090004E04F0E4A3F075EC
:2009E2008201120A2390004A7408F090004B7448F07400A3F0E4A3F090004E04F0E4A3F09F
:200A0200758211120A23900049E0FF600690004A7409F090004AE0900069F0758201020C7F
:200A220087E582900050F0E0FF741F5F4420FF90004BE0FCA3E0FDA3E0FE90004EE0FAA3AF
:200A4200E0FB90005BECF0EDA3F0EEA3F090005EEAF0EBA3F0900060E4F08F82020B9875BC
:200A6200E80275E80422AFF0AE83E582900054F0EEA3F0EFA3F0900054E0FDA3E0FEA3E034
:200A8200FF900051E0FBA3E0FC90005BEDF0EEA3F0EFA3F090005EEBF0ECA3F0900060E433
:200AA200F07582A0120B98AF82900053E0FEBE0107C007120ABDD0078F8222D2E890000448
:200AC20012006290000A120062C2E822E582900057F090006B7458F07400A3F0E4A3F090C3
:200AE200006E04F0E4A3F0758200120CD4900058E0FF30E0012290005874014FF090004BC1
:200B02007458F07400A3F0E4A3F090004E04F0E4A3F0758200120A23900057E0FF6008D21A
:200B2200E8900004020062C2E8229000597470F090004B7459F07400A3F0E4A3F090004E56
:200B420004F0E4A3F0758207120A23C2C12290006B745AF07400A3F0E4A3F090006E04F01D
:200B6200E4A3F0758200120CD490005AE0FF20E00122C2E890005A74FE5FF090004B745A29
:200B8200F07400A3F0E4A3F090004E04F0E4A3F0758200020A23E582900061F0E0FF9000BF
:200BA20062F0C2E99000637401F0E4A3F090006504F090006275F000120BF490005BE0FD4E
:200BC200A3E0FEA3E0FF90005EE0FBA3E0FC900060E0FA900063EBF0ECA3F0900065EAF0E2
:200BE2008D828E838FF0120BF4D2E9900062E0F58222AFF0AE83E582900066F0EEA3F0EF90
:200C0200A3F0900066E0FDA3E0FEA3E0FF900065E0FC900063E0FAA3E0FB78007900C3E8B1
:200C22009AE99B505FC002C003E82DF52CE93EF52D8F2E852C82852D83852EF0122E57FB87
:200C4200F582C007C006C005C004C003C002C001C000120D1085822FD000D001D002D00354
:200C6200D004D005D006D007D003D002EC600E852C82852D83852EF0E52F122BCA08B80037
:200C82009D09809A22E58290006AF0900069E0FF74024FF090004B7469F07400A3F0E4A35C
:200CA200F090004E04F0E4A3F0758200120A23900001120062900069E0FF20E003C2E82217
:200CC20090006AE0FF6008D2E8900004020062C2E822E582900070F0E0FF53071F90006BA9
:200CE200E0FCA3E0FDA3E0FE90006EE0FAA3E0FB90005BECF0EDA3F0EEA3F090005EEAF02F
:200D0200EBA3F09000607401F08F82020B98E582900071F0E0F5E7E5E630E2FBC2C085E76E
:200D22008222AFF0AE83E582900075F0EEA3F0EFA3F0900074E0FF24FA500122740A2FFFBE
:200D4200900075E0FCA3E0FDA3E0FE900072E0FAA3E0FB90004BECF0EDA3F0EEA3F090000D
:200D62004EEAF0EBA3F08F82020A23C2E890006B7478F07400A3F0E4A3F090006E04F0E4B6
:200D8200A3F0758200120CD4900078E0FF20E1012290007874FD5FF090004B7478F07400D7
:200DA200A3F0E4A3F090004E04F0E4A3F0758200020A23E582900079F090006B747AF0740B
:200DC20000A3F0E4A3F090006E04F0E4A3F0758200120CD490007AE0FF30E1012290007A8E
:200DE20074024FF090004B747AF07400A3F0E4A3F090004E04F0E4A3F0758200120A2390F6
:200E0200000112006290007AE0FF20E003C2E822900079E0FF6008D2E8900004020062C2DF
:200E2200E82290006B747BF07400A3F0E4A3F090006E04F0E4A3F0758217120CD490007BDA
:200E4200E0FF30E5047F0180027F008F8222120A6190007C740EF090004B747CF07400A317
:200E6200F0E4A3F090004E04F0E4A3F0758200120A239000021200DF90007C7433F09000D4
:200E82004B747CF07400A3F0E4A3F090004E04F0E4A3F0758204120A2390007C7403F09021
:200EA200004B747CF07400A3F0E4A3F090004E04F0E4A3F0758203120A2390007C7406F08F
:200EC20090004B747CF07400A3F0E4A3F090004E04F0E4A3F0758206120A2390005BE4F093
:200EE200A3F0A3F090005EF0A3F090006004F07582E1020B98E58290007DF090004B747DC8
:200F0200F07400A3F0E4A3F090004E04F0E4A3F0758205020A23E58290007EF090006B7419
:200F22007FF07400A3F0E4A3F090006E04F0E4A3F0758206120CD490007FE0FF74D75FF0E2
:200F420090007EE0FFBF010B90007FE0FE74204EF0800CBF030990007FE0FF74084FF09088
:200F6200004B747FF07400A3F0E4A3F090004E04F0E4A3F0758206020A23E582900080F0E7
:200F8200E0FFBF01089000817401F08005900081E4F090004B7481F07400A3F0E4A3F090FA
:200FA200004E04F0E4A3F0758201020A23E582900082F090006B7483F07400A3F0E4A3F086
:200FC20090006E04F0E4A3F0758200120CD4900083E0FF74F35FF0900082E0FFBF010B90C9
:200FE2000083E0FE74084EF0800CBF0209900083E0FF740C4FF090004B7483F07400A3F004
:20100200E4A3F090004E04F0E4A3F0758200020A2390006B7484F07400A3F0E4A3F09000F7
:201022006E04F0E4A3F0758206120CD4900084E0FF74F95FF090004B7484F07400A3F0E489
:20104200A3F090004E04F0E4A3F0758206020A2390FC04E0900086F090FC05E0900087F098
:2010620090FC06E0900088F090FC07E0900089F090FC08E090008AF09000857401F09000F0
:201082004B7485F07400A3F0E4A3F090004E04F0E4A3F0758202120A2390004B7486F074E2
:2010A20000A3F0E4A3F090004E7405F0E4A3F075820A120A2390004B7486F07400A3F0E476
:2010C200A3F090004E7405F0E4A3F0758210120A239000857410F090004B7485F07400A313
:2010E200F0E4A3F090004E04F0E4A3F0758211020A23AF83E58290008BF0EFA3F090008BC6
:20110200E0FEA3E0FF8EAF8FAF22AF82AE83ADF0FC90008DEFF0EEA3F0EDA3F0ECA3F090C9
:201122000091E4F0A3F0740755ADFFBF070B7582021211C5E5AD30E6FB90008DE0FCA3E068
:20114200FDA3E0FEA3E0FFC3EC94F8ED94CFEE9407EF94005051EF5401A2E0CE13CE13CEFF
:20116200FFEDC3134EFEED5401A2E0CC13CC13CCFD74F42CFC74013DFDE43EFEE43FFF9003
:20118200025274E8F07403A3F0E4A3F0A3F08C828D838EF0EF122A4BAC82AD83AEF0FF90FC
:2011A2000091ECF0EDA3F0900091E0FEA3E0FF8E828F83C007C0061210F4D006D0078E823D
:2011C2008F8322E582900093F0AFAD5307F8900093E054074FF5AD22E582900095F0E0F5EF
:2011E200DD900094E0F5DE85DF8222E582900096F0E0902FD093F58222AFF0AE83E5829052
:201202000098F0EEA3F0EFA3F0900098E0F510A3E0F511A3E0F51274102510FAE43511FB49
:20122200AC12900097E025E025E0F97800C001E8F50825E025E02510F509E43511F50A85DB
:20124200120BE875F03CA42AF50CE43BF50D8C0E750F00D001C002C003C004E50F2509FAA2
:20126200E4350AFBAC0BE50F29250CFDE4350DFEAF0E8D828E838FF0122E57FD8A828B831E
:201282008CF0122E57FF62058A828B838CF0ED122BCA050FC3E50F9404D004D003D002402D
:2012A200B4E50804F8B80400500302122F22AFF0AE83E58290009BF0EEA3F0EFA3F0900036
:2012C2009BE0FDA3E0FEA3E0FF8D828E838FF0122E57F582C007C006C0051211EDAC82D084
:2012E20005D006D0078D828E838FF0EC122BCA74012DFAE43EFB8F048A828B838CF0122E86
:2013020057F582C007C006C005C004C003C0021211EDA982D002D003D004D005D006D0072C
:201322008A828B838CF0E9122BCA74022DFAE43EFB8F048A828B838CF0122E57F582C0076D
:20134200C006C005C004C003C0021211EDA982D002D003D004D005D006D0078A828B838CDB
:20136200F0E9122BCA74032DFDE43EFE8D828E838FF0122E57F582C007C006C0051211EDBB
:20138200AC82D005D006D0078D828E838FF0EC022BCAAFF0AE83E58290009EF0EEA3F0EF54
:2013A200A3F090009EE0FDA3E0FEA3E0FF8D828E838FF0122E57F50874012DF509E43EF5A0
:2013C2000A8F0B850982850A83850BF0122E578D828E838FF0122BCA74022DF8E43EFB8F41
:2013E2000488828B838CF0122E57850982850A83850BF0122BCA74032DFDE43EFE8D828EB5
:20140200838FF0122E5788828B838CF0122BCA8D828E838FF0E508022BCAE5829000A1F08B
:20142200E0FFBFFF0475820022EF9030D093F58222AFF0AE83E5829000A5F0EEA3F0EFA3D6
:20144200F09000A2E0F533A3E0F534A3E0F5359000A5E0FAA3E0FBA3E0FC8A3074012BF5AC
:20146200318C3279008530828531838532F0122E57F8C3E998400302157374102AF8E43B86
:20148200FE8C07E928F536E43EF5378F38E975F004A4F53985F03A2533F8E53A3534FEAF10
:2014A2003588828E838FF0122E578536828537838538F0122BCA744C2AFDE43BFE8C07E914
:2014C2002DF536E43EF5378F3874012539F8E4353AFFE82533F8EF3534FFAE3588828F83F2
:2014E2008EF0122E578536828537838538F0122BCA74882AFDE43BFE8C07E92DF536E43E6F
:20150200F5378F3874022539F8E4353AFFE82533F8EF3534FFAE3588828F838EF0122E5715
:201522008536828537838538F0122BCA74C42AFDE43BFE8C07E92DFDE43EFEC002C003C0F2
:201542000474032539F8E4353AFCE82533F8EC3534FCAB3588828C838BF0122E57F88D82CE
:201562008E838FF0122BCA09D004D003D00202146774102AFDE43BFE8C07744C2AF536E47F
:201582003BF5378C3874882AF533E43BF5348C3574C42AF53BE43BF53C8C3D74012AFA740F
:2015A200013BFBC005C006C0078A828B838CF0122E57F87F0008B800010FEFC825E0C83375
:2015C200C825E0C833FF89057E00C3ED98EE64808FF063F08095F0D007D006D00540012260
:2015E200C002C003C004E914F82DFAE43EFB8F048A828B838CF0122E579000A8F0E825363C
:20160200FAE43537FBAC388A828B838CF0122E579000A9F0E82533FAE43534FBAC358A82DA
:201622008B838CF0122E579000AAF0E8253BF8E4353CFCAB3D88828C838BF0122E57F89031
:2016420000ABF08530828531838532F0122E57F5398539F0E98485F03ED004D003D002E5E5
:201662003E7071C002C003C0049000A875F000C007C006C005C004C003C002C0011213944E
:201682009000A875F0001212B0D001D002D003D0049000A8E0F88530828531838532F01254
:2016A2002E57FC8CF0E984F582C003C002C001C00012141CAC82D000D001D002D003D005B6
:2016C200D006D007EC62009000A8E8F0D004D003D0028030E53924F9502A7404B53E2590FF
:2016E20000A875F000C007C006C005C004C003C002C0011212B0D001D002D003D004D0058C
:20170200D006D007C002C003C004E92DF53FE43EF5408F418530828531838532F0122E57B2
:20172200FAE9C39A2DFAE43EFB8F049000A8E0F88A828B838CF0122E576200853F828540E6
:20174200838541F0E8122BCAE92536F53FE43537F5408538418530828531838532F0122E0D
:2017620057F8E9C3982536F8E43537FBAC389000A9E0FA88828B838CF0122E576202853FEC
:20178200828540838541F0EA122BCAE92533F53FE43534F5408535418530828531838532BD
:2017A200F0122E57F8E9C3982533F8E43534FBAC359000AAE0FA88828B838CF0122E57624A
:2017C20002853F828540838541F0EA122BCAE9253BF53FE4353CF540853D418530828531D9
:2017E200838532F0122E57F8E9C398253BF8E4353CFBAC3D9000ABE0FA88828B838CF0129E
:201802002E57F86202853F828540838541F0EA122BCA09D004D003D0020215A5AFF0AE83A2
:20182200E5829000B3F0EEA3F0EFA3F09000ACE0FF70339000B3E0FCA3E0FDA3E0FE8C019E
:2018420074012DFA8E0389828A838BF07404122BCA74012CFC74013DFD8C828D838EF074EB
:201862000A122BCA8067BF01339000B3E0FDA3E0FEA3E0FF8D0274012EFB8F048A828B837E
:201882008CF07406122BCA74012DFD74013EFE8D828E838FF0740C122BCA80319000B3E0FF
:2018A200FDA3E0FEA3E0FF8D0274012EFB8F048A828B838CF07408122BCA74012DFD740139
:2018C2003EFE8D828E838FF0740E122BCA9000B3E0FDA3E0FEA3E0FF9000ADE0FAA3E0FBEA
:2018E200A3E0FC9000A2EAF0EBA3F0ECA3F08D828E838FF01214339000B0E0FDA3E0FEA325
:20190200E0FFED4E604A9000B3E0FAA3E0FBA3E0FC74022AF54274013BF5438C447900E9F6
:201922002542F545E43543F546854447E92DFAE43EFB8F048A828B838CF0122E57FA8545AC
:20194200828546838547F0122BCA09B9100040CF9000B3E0FDA3E0FEA3E0FF74122DFD74CA
:20196200013EFE8D828E838FF0E4122BCAA3022BCAAFF0AE83E5829001CAF0EEA3F0EFA36F
:20198200F09001CAE0FDA3E0FEA3E0FF7B007C008B488C498B00ECC825E0C833C825E0C8A7
:2019A20033FAE82DF54CEA3EF54D8F4EE4F54AF54BC005C006C007E54A254CFDE54B354D57
:2019C200FEAF4E8D828E838FF0122E57F582C007C006C0051211EDAA82D005D006D0078DC0
:2019E200828E838FF0EA122BCA054AE4B54A02054BC3E54A9404E54B64809480D007D006FF
:201A0200D00540AD74012548FBE43549FCC3EB9404EC64809480500302199222AFF0AE83AB
:201A2200E5829001CDF0EEA3F0EFA3F09001CDE0FDA3E0FEA3E0FF74042DF50EE43EF50FE0
:201A42008F1074082DF508E43EF5098F0A740C2DF50BE43EF50C8F0D7900E92DF514E43E60
:201A6200F5158F168514828515838516F0122E57FA9001D0F0C005C006C007E9250EF5119C
:201A8200E4350FF5128510138511828512838513F0122E57FF9001D1F0E92508F517E43590
:201AA20009F518850A198517828518838519F0122E57FB9001D2F0E9250BF51AE4350CF573
:201AC2001B850D1C851A82851B83851CF0122E57FC9001D3F08ADD75DE029001E3E5DFF09B
:201AE200E0FE8CDD75DE019001E2E5DFF0E062068BDD75DE019001E1E5DFF0E062068FDD44
:201B020075DE039001E0E5DFF0E062068514828515838516F0EE122BCA8FDD75DE029001F6
:201B2200DFE5DFF0E0FE8ADD75DE019001DEE5DFF0E062068CDD75DE019001DDE5DFF0E04D
:201B420062068BDD75DE039001DCE5DFF0E062068511828512838513F0EE122BCA8BDD7568
:201B6200DE029001DBE5DFF0E0FE8FDD75DE019001DAE5DFF0E062068ADD75DE019001D939
:201B8200E5DFF0E062068CDD75DE039001D8E5DFF0E062068517828518838519F0EE122B2C
:201BA200CA8CDD75DE029001D7E5DFF0E0FE8BDD75DE019001D6E5DFF0E0FD62068FDD75A4
:201BC200DE019001D5E5DFF0E062068ADD75DE039001D4E5DFF0E0FF6206851A82851B8361
:201BE200851CF0EE122BCA09B90400D007D006D0055003021A5C22AFF0AE83E5829001F46C
:201C0200F0EEA3F0EFA3F09001F4E0FDA3E0FEA3E0FF74042DF509E43EF50A8F0B850982FC
:201C2200850A83850BF0122E57F50874052DF50CE43EF50D8F0E850C82850D83850EF01257
:201C42002E57850982850A83850BF0122BCA74062DF509E43EF50A8F0B850982850A83854D
:201C62000BF0122E57850C82850D83850EF0122BCA74072DF8E43EF98F04888289838CF03E
:201C8200122E57850982850A83850BF0122BCA888289838CF0E508122BCA74082DF509E4F1
:201CA2003EF50A8F0B850982850A83850BF0122E57F50C740A2DF8E43EF98F0488828983AA
:201CC2008CF0122E57850982850A83850BF0122BCA888289838CF0E50C122BCA74092DF51D
:201CE20009E43EF50A8F0B850982850A83850BF0122E57F50C740B2DF8E43EF98F04888288
:201D020089838CF0122E57850982850A83850BF0122BCA888289838CF0E50C122BCA740CEF
:201D22002DF509E43EF50A8F0B850982850A83850BF0122E57F50C740F2DF50FE43EF510A6
:201D42008F11850F828510838511F0122E57850982850A83850BF0122BCA740E2DFAE43E22
:201D6200FB8F048A828B838CF0122E57850F828510838511F0122BCA740D2DFDE43EFE8D93
:201D8200828E838FF0122E578A828B838CF0122BCA8D828E838FF0E50C022BCAAFF0AE83A4
:201DA200E5829001FDF0EEA3F0EFA3F09001FDE0FDA3E0FEA3E0FF9001F7E0F553A3E0F5A3
:201DC20054A3E0F5557900E9F825E025E0FC2DF54FE43EF5508F51755200C005C006C007AF
:201DE200E552254FFDE43550FEAF5188037C00E55275F004A42BFBEC35F0FCEB2553FBEC0A
:201E02003554FCAA558B828C838AF0122E57FB8D828E838FF0122BCA0552C3E5529404D0B5
:201E220007D006D00540B3E804F9B904004098900097E4F08D828E838FF0C007C006C00595
:201E42001211FBD005D006D00774012DFA74013EFB8F0479018A828B838CF0122E57F8C3A1
:201E6200995003021F358D828E838FF0C007C006C005C004C003C002C001121973D001D0E4
:201E820002D003D004D005D006D0078D828E838FF0C007C006C005C004C003C002C0011208
:201EA2001BF9D001D002D003D004D005D006D0078A828B838CF0122E57F8C002C003C004D2
:201EC2007C0018B8FF011C89027B00C3E89AEC64808BF063F08095F0D004D003D0024025CC
:201EE2008D828E838FF0C007C006C005C004C003C002C001121A1ED001D002D003D004D081
:201F020005D006D007900097E9F08D828E838FF0C007C006C005C004C003C002C0011211EF
:201F2200FBD001D002D003D004D005D006D00709021E579001FAE0FAA3E0FBA3E0FC79007D
:201F4200C002C003C004E9F825E025E02DF553E43EF5548F55755200D004D003D002C00582
:201F6200C006C00788067F00E55275F004A42EFEEF35F0FFEE2AF54FEF3BF5508C51E55263
:201F82002553FDE43554FEAF558D828E838FF0122E57854F828550838551F0122BCA055253
:201FA200C3E5529404D007D006D00540B1E804F9B904005003021F4222E582900200F0E0D7
:201FC200FF7E50E59030E4047D0180027D00EDB507028002DEEDEE7003F58222758201221C
:201FE200AFF0AE83E582900204F0EEA3F0EFA3F0900207E4F0900208F0900209F090020A01
:20200200F090020BF090020CF0A3F090000704F075820C12011B9000021200DF75820C12CC
:202022000383900014120062C2AF900007E4F075820C12011B758200121FBBE582700475C0
:20204200820122758201121FBBE582700475820122758200121FBBE5827004758201227FA9
:2020620000EF2407F582E43402F583E4F08F067D00758201C007C006C005121FBBE582D0E8
:2020820005D006D00770047582012290001EC007C006C00512006275820C1203EBE582D050
:2020A20005D006D0076028EE2407FBE43402FC8B828C83E0FA7407C39DF5F005F07401801A
:2020C2000225E0D5F0FBF942028B828C83EAF0758200C007C006C005121FBBE582D005D0C3
:2020E20006D0077004758201220DBD080050030220730FBF05005003022063D2AF900207F4
:20210200E07016900208E07010900209E0700A90020AE07004758201227F00EF2407F5824E
:20212200E43402F583E0FE7D0090020CE0FBA3E0FC90020CEE2BF0ED3CA3F00FBF04004043
:20214200DA90020CE0FEA3E07F0090020BE0FD7C00EEB50506EFB5040280047582022290A8
:202162000208E0705390020AE0704D900201E0FDA3E0FEA3E0FF900209E075F00AA4FCABCF
:20218200F08D828E838FF0EC122BCAA3EB122BCA900204E0FDA3E0FEA3E0FF900207E075C2
:2021A200F00AA4FCABF08D828E838FF0EC122BCAA3EB122BCA022245900201E0FDA3E0FE67
:2021C200A3E0FF900207E0FB7C00900208E07A004204EA42038D828E838FF0EC122BCAA3ED
:2021E200EB122BCA900204E0FDA3E0FEA3E0FF900209E0FC53047F8C037C0090020AE0F9A8
:202202007A004204EA42038D828E838FF0EC122BCAA3EB122BCA900209E0FC30E7258D82E4
:202222008E838FF0122E57FBA3122E57FCC3E49BFBE49CFC8D828E838FF0EB122BCAA3EC6B
:20224200122BCA758200229000077401F075820B12011B9001E0120062900007E4F07582E9
:202262000B12011B90003C12006275820B1203EBE582FFB40100E433FF9001B8C00712008E
:2022820062D0078F8222E58290020EF0C2AF7F0890020EE0FE530601BE0129900007740115
:2022A200F075820BC00712011B900002120062900007E4F075820B12011B90003C12006254
:2022C200D00780219000077401F075820BC00712011B90003C120062900007E4F075820BE4
:2022E20012011BD00790020EE0C313FEF0DFA1D2AF2290020FE4F0C2AF7F009000077401FF
:20230200F075820BC00712011B900002120062900007E4F075820B12011B9000021200622D
:2023220075820B1203EBAE82900032C006120062D006D00790020FE0C313FDEE035480FEA9
:202342004DF00FBF080040B3D2AF90020FE0F58222AFF0AE83E582900210F0EEA3F0EFA3FE
:20236200F0900007E4F075820B12011B122249E5827004758201227582CC12228875824E9A
:202382001222887582001222887582FF12228875823F122288122249E582700475820122B6
:2023A2007582CC1222887582441222887E907F01C007C0061222F4AD82D006D007BDFF02C8
:2023C20080091EBEFF011FEE4F70E5EE4F700475820322122249E5827004758201227582AF
:2023E200CC1222887582BE1222881222F4AF82900213EFF01222F4AF82900214EFF08F0692
:202402007F00900213E07C004207EC4206900215EFF0EEA3F07C0074805EFDEC6011630724
:20242200FF6306FF90021574012FF0E43EA3F0900007E4F075820B12011B900210E0FDA386
:20244200E0FEA3E0FF900215E0FBA3E0FC900267EBF0ECA3F0900006C007C006C005C0041A
:20246200C003122BE5A982AA83D003D00490026D7404F0E4A3F08B828C83C002C001122CBB
:2024820071AB82AC83D001D002EB29F9EC3AFA89828A83122D7CA982AA83ABF0FCE4C0E057
:2024A200C0E074C8C0E07442C0E089828A838BF0EC122D94A982AA83ABF0FCE58124FCF58C
:2024C20081D005D006D0078D828E838FF0E9122BCAA3EA122BCAA3EB122BCAA3EC122BCAA9
:2024E2007582002290000FE4F09000070204F1AFF0AE83E582900217F0EEA3F0EFA3F0905D
:20250200021BE4F090021CF090021DF090021A7410F0900035741AF07402A3F0E4A3F09018
:20252200003804F0900039741BF07402A3F0E4A3F090003CF0A3F0A3F0A3F07582231208FC
:2025420032AF82BF0104758202229000C81200DF900012741CF07402A3F0E4A3F0900015A7
:202562007402F0E4A3F0A3F0A3F0758223120535AF82BF01047582012290021AE4F09000D1
:2025820035741AF07402A3F0E4A3F090003804F0900039741BF07402A3F0E4A3F090003CB6
:2025A200F0A3F0A3F0A3F0758223120832900217E0FDA3E0FEA3E0FF90021CE0FB7C0090EC
:2025C200021DE07A002CFCEA3BFB8C828B83C007C006C005122D7CA982AA83ABF0FC749A12
:2025E200C0E014C0E0C0E0743FC0E089828A838BF0EC122D94A982AA83ABF0FCE58124FCCB
:20260200F58189828A838BF0EC122D89AB82AC83D005D006D0078D828E838FF0EB122BCA8C
:20262200A3EC122BCA75820022AFF0AE83E58290021EF0EEA3F0EFA3F090FC09E0FF900209
:2026420021F090FC0CE0603290021EE0FDA3E0FEA3E0FF7A227B027C009001F7EDF0EEA342
:20266200F0EFA3F09001FAEAF0EBA3F0ECA3F09000B675F000121D9E802890021EE0FDA334
:20268200E0FEA3E0FF90025EEDF0EEA3F0EFA3F09002617410F0E4A3F090022275F00012FF
:2026A2002B56120E24E582601A90005BE4F0A3F0A3F090005EF0A3F090006004F07582E160
:2026C200120B98120B2C7D227E027F009000517410F0E4A3F090005304F08D828E838FF01A
:2026E200120A687E2C7F0130C14E90005BE4F0A3F0A3F090005EF0A3F090006004F07582BA
:20270200FFC007C006120B98E582D006D00720E55290005BE4F0A3F0A3F090005EF0A3F0B5
:2027220090006004F07582FFC007C006120B98E582D006D00720E42B8E048F051EBEFF0136
:202742001FEC4D700D900221E0FD14F0ED60140226A490000AC007C006120062D006D00799
:202762000226E930C12C90005BE4F0A3F0A3F090005EF0A3F090006004F07582FF120B9844
:20278200E58230E40D900221E0FF14F0EF60030226A4020B2CAFF0AE83E582900234F0EEE7
:2027A200A3F0EFA3F0900237E4F0758201120ACE120B2C900232E0FEA3E0FF8E048F051ED2
:2027C200BEFF011FEC4D605F30C14C90005BE4F0A3F0A3F090005EF0A3F090006004F07536
:2027E20082FFC007C006120B98E582D006D00730E625900234E0FBA3E0FCA3E0FD90004352
:202802007410F0E4A3F08B828C838DF01209699002377401F0801090000AC007C0061200B7
:2028220062D006D0078094120B2C120B50900237E0F5822290FC00E0FF900243F090FC0CB3
:20284200E060239000ACE4F09000AD740DF074FCA3F0E4A3F09000B0F0A3F0A3F09000B63F
:2028620075F00012181E9000141200DF1224E6120E5012105290FC03E0F582120F7C90FC05
:2028820001E0F582120EF790FC02E0F582120F189000077401F075820112011B758201127D
:2028A20003EBE582600875820112031780067582011203839002427402F090024414F0907B
:2028C20002457403F090024075F0001224F1E58270209002427401F0900240E0FEA3E0FF88
:2028E2007D007C0090024EEEF0EFA3F0EDA3F0ECA3F090024275F00012262B9002427402B8
:20290200F0900244E4F0900245F0900246F090023C75F000122353AF8290024EEFF0EF7082
:20292200289002427401F09002467428F090023CE0FCA3E0FDA3E0FEA3E0FF90024EECF0E7
:20294200EDA3F0EEA3F0EFA3F090024275F00012262B900007E4F075820B12011B900242E7
:202962007402F0900244F090024614F0900201743AF07402A3F0E4A3F090023875F000125B
:202982001FE2AF8290024EEFF0EF600B90024275F00012262B80599002427401F090024565
:2029A200E4F0900238E0FEA3E0FF3395E0FDFC90024EEEF0EFA3F0EDA3F0ECA3F090024263
:2029C20075F00012262B9002457401F090023AE0FEA3E0FF3395E0FDFC90024EEEF0EFA3D4
:2029E200F0EDA3F0ECA3F090024275F00012262B900007E4F075820C12011B900007E4F043
:202A020075820D12011B75820D1203EBE582603075AD0175820112031775AE0290FC0AE0A5
:202A2200FEA3E0FF900269EEF0EFA3F0E4A3F0A3F09003E8E4F5F0122C0512110C75A404DC
:092A42009075301200DF02289E9D
:202FD000637C777BF26B6FC53001672BFED7AB76CA82C97DFA5947F0ADD4A2AF9CA472C066
:202FF000B7FD9326363FF7CC34A5E5F171D8311504C723C31896059A071280E2EB27B2752C
:2030100009832C1A1B6E5AA0523BD6B329E32F8453D100ED20FCB15B6ACBBE394A4C58CF54
:20303000D0EFAAFB434D338545F9027F503C9FA851A3408F929D38F5BCB6DA2110FFF3D2E2
:20305000CD0C13EC5F974417C4A77E3D645D197360814FDC222A908846EEB814DE5E0BDB32
:20307000E0323A0A4906245CC2D3AC629195E479E7C8376D8DD54EA96C56F4EA657AAE0814
:20309000BA78252E1CA6B4C6E8DD741F4BBD8B8A703EB5664803F60E613557B986C11D9E2A
:2030B000E1F8981169D98E949B1E87E9CE5528DF8CA1890DBFE6426841992D0FB054BB16CA
:2030D0008D01020408102040801B366CD8AB4D9A2F5EBC63C697356AD4B37DFAEFC5913909
:2030F00072E4D3BD61C29F254A943366CC831D3A74E8CB8D01020408102040801B366CD88E
:20311000AB4D9A2F5EBC63C697356AD4B37DFAEFC5913972E4D3BD61C29F254A943366CCD9
:20313000831D3A74E8CB8D01020408102040801B366CD8AB4D9A2F5EBC63C697356AD4B39C
:203150007DFAEFC5913972E4D3BD61C29F254A943366CC831D3A74E8CB8D0102040810208D
:2031700040801B366CD8AB4D9A2F5EBC63C697356AD4B37DFAEFC5913972E4D3BD61C29F8C
:20319000254A943366CC831D3A74E8CB8D01020408102040801B366CD8AB4D9A2F5EBC6357
:1F31B000C697356AD4B37DFAEFC5913972E4D3BD61C29F254A943366CC831D3A74E8CB77
:202A4B00AF82AE83ADF0FC900256EFF0EEA3F0EDA3F0ECA3F090025AE4F0A3F0A3F0A3F0B0
:202A6B00900252E0FCA3E0FDA3E0FEA3E0FF750820900256E0F8A3E0F9A3E0FAA3E0FB3301
:202A8B009200E828F8E933F9EA33FAEB33FB900256E8F0E9A3F0EAA3F0EBA3F090025AE049
:202AAB00F8A3E0F9A3E0FAA3E0FBE828F8E933F9EA33FAEB33FB90025AE8F0E9A3F0EAA382
:202ACB00F0EBA3F030001E90025AE0F8A3E0F9A3E0FAA3E0FB90025A740148F0E9A3F0EAF5
:202AEB00A3F0EBA3F090025AE0F8A3E0F9A3E0FAA3E0FBC3E89CE99DEA9EEB9F403190029D
:202B0B005AE8C39CF0E99DA3F0EA9EA3F0EB9FA3F0900256E0F8A3E0F9A3E0FAA3E0FB9001
:202B2B000256740148F0E9A3F0EAA3F0EBA3F0D508028003022A7C900256E0FCA3E0FDA31D
:0B2B4B00E0FEA3E08C828D838EF02260
:06003500E478FFF6D8FD9F
:202B5600AFF0AE83E582900263F0EEA3F0EFA3F0900263E0F508A3E0F509A3E0F50AAA08B9
:202B7600AB09AC0A90025EE0F8A3E0F9A3E0FF900261E0F50BA3E0F50CAD0BAE0C150B74B2
:202B9600FFB50B02150CED4E6020888289838FF0122E57FEA3A882A9838A828B838CF0EEDB
:142BB600122BCAA3AA82AB8380CF850882850983850AF022F7
:200013007900E94400601B7A009031CF787775C902E493F2A308B8000205C9D9F4DAF275C9
:02003300C9FF03
:1B2BCA0020F71130F6138883A88220F509F6A8837583002280FEF280F5F0220A
:202BE500AA83AB828BF0900267E0A4F8A9F08AF0E0A429F98BF0A3E0A429F583888222223C
:202C0500A882A983AAF0FB88F0900269E0A4FCADF089F0E0A42DFDE435F0FE88F0A3E0A467
:202C25002DFDE5F03EFEE433FF89F0E0A42EFEE5F03FFF88F0A3E0A42EFEE5F03FFF8AF0AA
:202C4500900269E0A42EFEE5F03FFF8BF0E0A42FFF8AF0A3E0A42FFF89F0A3E0A42FFF885F
:0C2C6500F0A3E0A42F8EF08D838C82225F
:20003B007800E84400600A790175C900E4F309D8FC7876E84402600C7903900001E4F0A31F
:04005B00D8FCD9FAFA
:202C7100AF83E58290026FF0EFA3F090026FE0FEA3E0FF33E433FD6009C3E49EFBE49FFC67
:202C910080048E038F0490026DE0FEA3E0FF33E433FA6009C3E49EF8E49FF980048E008F15
:202CB10001900271E8F0E9A3F08B828C83C005C002122CE2AE82AF83D002D005EA6D600C1C
:112CD100C3E49EFCE49FFD8C828D83228E828F8322AD
:202CE200AF83E582900273F0EFA3F0900275E4F0A3F0900271E0FEA3E0FF7D10900273E07F
:202D0200FBA3E0FC339201ECCB25E0CB33FC900273EBF0ECA3F0900275E0FBA3E0CB25E027
:202D2200CB33FC900275EBF0ECA3F0300112900275E0FBA3E0FC90027574014BF0ECA3F05C
:202D4200900275E0FBA3E0FCC3EB9EEC9F401D900275EBC39EF0EC9FA3F0900273E0FBA3F8
:1A2D6200E0FC90027374014BF0ECA3F0DD8E900273E0FEA3E08E82F58322CC
:0D2D7C00AC83AB827A007900748E022E7C4D
:0B2D89007F8E122F07F58385F0822259
:202D9400122EA030D502B2D1BF0009BC0003022F70022F63BC0003022F4DE583B4FF0BE5B1
:202DB40082B4FF03022F70022F4DE582B4FF03022F63C395835007247F400B022F4D2480B5
:202DD400145003022F63F582C3ED9AEE9BEF9C40111582C3EA33F9EB33FAEC33FBE433FC09
:202DF4008005E4CCCBCAF9C08275F019C3E99DEA9EEB9FEC9400D5F002802D400EE99DF920
:202E1400EA9EFAEB9FFBEC9400FCC3B3E833F8E58233F582E58333F583C3E933F9EA33FA7F
:202E3400EB33FBEC33FC80C4B3E4F938FAE43582FBE43583FCD082500405827C80122ECEDF
:032E5400022F4406
:0D000600758155122F01E582600302000391
:1C2E570020F71430F6148883A88220F507E6A88375830022E280F7E49322E0228A
:202E7300FCABF0AA83A982749EF582C2D1EC30E716D2D1E9F42401F9EAF43400FAEBF4345E
:0D2E930000FBECF43400FC122ECE022F2CBC
:202EA000AA82AB83A2F73392D1F5826002D2F7ACF0E58124F9F8E6FD08E6FE0886F008E695
:0E2EC000A2F73392D5F5836002D2F7AFF0226D
:202ECE007804EC7011E58224F8500AF582E4C9CACBFCD8EF22EC7820058220E713D5820103
:132EEE0022C3E933F9EA33FAEB33FBEC33FCD8EA15822211
:042F010075820022B3
:202F05007F9E122FBE30D103022F4DC3EF9582500974FFF5F0F583F582227900122F7B89C5
:072F2500828A838BF0EC228D
:202F2C00B98003EA13B34010EA2401FAE43BFBE43CFC50047C800582BC000EBB000BBA00E9
:202F4C0008E4F5F0F583F58222A2D1E582138CF092F78B838A8222E4F583F58275F080F4A9
:0F2F6C00A2D11322E4F583F58275F0C0747F22A1
:202F7B006040F82582500274FFF582E824F8501ECCCBCAF9E4CC24F85014CBCAF9E4CB245E
:202F9B00F8500BCAF9E4CA24F8500379002224086010F8C3EC13FCEB13FBEA13FAE913F911
:032FBB00D8F12228
:122FBE00AA82AB83A2F73392D1F5826002D2F7ACF02218
:00000001FF
