:03000000020006F5
:03005F0002000399
:030003000222E1F5
:20006200AF83E582900001F0EFA3F0900001E0FEA3E0FF4E7001221EBEFF011F900001EE96
:20008200F0EFA3F0900001E0FEA3E0FF7C007D00C3EC9EED9F500900000CBC00F30D80F098
:2000A20022AF83E582900003F0EFA3F0900003E0FEA3E0FF7C007D00C3EC9EED9F501D90BC
:2000C20003E8C007C006C005C0041200DFD004D005D006D0070CBC00DF0D80DC22AF83E58D
:2000E20082900005F0EFA3F0900005E0FEA3E0FF7C007D00C3EC9EED9F501D9003E8C007FF
:20010200C006C005C004120062D004D005D006D0070CBC00DF0D80DC22E582900008F0E0C3
:20012200FF24F850030201A0900007E0FEFDED30E04CEE30E11574075FF5F005F074018034
:200142000225E0D5F0FBFD4280801474075FF5F005F07401800225E0D5F0FBF4FD528074DC
:20016200075FFD74075DFC74E05E4CF59E8DF005F07401800225E0D5F0FBF4529322740711
:200182005FFD74075D4410FC74E05E4CF59E8DF005F07401800225E0D5F0FB429322EF2410
:2001A200F0500302021E900007E0FEFDED30E04CEE30E11574075FF5F005F0740180022539
:2001C200E0D5F0FBFD4290801474075FF5F005F07401800225E0D5F0FBF4FD529074075FFD
:2001E200FD74075DFC74E05E4CF59F8DF005F07401800225E0D5F0FBF452942274075FFD99
:2002020074075D4410FC74E05E4CF59F8DF005F07401800225E0D5F0FB429422EF24E850B1
:200222000302029C900007E0FEFDED30E04CEE30E11574075FF5F005F07401800225E0D5C5
:20024200F0FBFD42A0801474075FF5F005F07401800225E0D5F0FBF4FD52A074075FFD74A0
:20026200075DFC74E05E4CF5978DF005F07401800225E0D5F0FBF452952274075FFD740715
:200282005D4410FC74E05E4CF5978DF005F07401800225E0D5F0FB429522EF24E1407590C5
:2002A2000007E0FEFDED30E04CEE30E11574075FF5F005F07401800225E0D5F0FBFD42B09E
:2002C200801474075FF5F005F07401800225E0D5F0FBF4FD52B074075FFD74075DFC74E026
:2002E2005E4CF58F8DF005F07401800225E0D5F0FBF452962253070774075F4410FD74E0C2
:200302005E4DF58F8FF005F07401800225E0D5F0FBFF429622E582900009F0E0FF24F84058
:200322001474075FF5F005F07401800225E0D5F0FBF4528022EF24F0401474075FF5F00534
:20034200F07401800225E0D5F0FBF4529022EF24E8401474075FF5F005F07401800225E0F8
:20036200D5F0FBF452A022EF24E1401474075FF5F005F07401800225E0D5F0FBF4FF52B006
:2003820022E58290000AF0E0FF24F8401374075FF5F005F07401800225E0D5F0FB428022A6
:2003A200EF24F0401374075FF5F005F07401800225E0D5F0FB429022EF24E8401374075F59
:2003C200F5F005F07401800225E0D5F0FB42A022EF24E1401374075FF5F005F0740180028F
:2003E20025E0D5F0FBFF42B022E58290000BF090000CE4F090000BE0FF24F8401974075FF8
:20040200F5F005F07401800225E0D5F0FBFE90000C5580F08058EF24F0401974075FF5F0F2
:2004220005F07401800225E0D5F0FBFE90000C5590F0803AEF24E8401974075FF5F005F0D8
:200442007401800225E0D5F0FBFE90000C55A0F0801CEF24E1401774075FF5F005F074014F
:20046200800225E0D5F0FBFF90000C55B0F090000CE0FF60047582012275820022E582909A
:20048200000EF090000DE0FF30E74190000EE0FEBE080BADA674C75D4408F5A68020BE10FB
:2004A2000BADA674C75D4410F5A68012BE200BAEA674C75E4420F5A6800475820022AE881B
:2004C2005306FE530701EF4EF588801F90000EE0FFBF08028008BF10028003BF2009AFA6B0
:2004E20074C75FF5A680047582002275820122AF83E58290000FF0EFA3F090000FE0FEA344
:20050200E0FD74035DF5D38ED274E05DF5D122E582900011F0E0FF740F5FF0AFD35307C31F
:20052200900011E025E025E04FF5D322E582900012F0E0F58212051143D3800000000022C5
:20054200E582900013F0E0F58212052E744055D3FFBF400280F685D58285D48322AFF0AE8A
:2005620083E582900016F0EEA3F0EFA3F0C2E8900016E0FDA3E0FEA3E0FF900014E0FBA3A4
:20058200E0FC90002CEDF0EEA3F0EFA3F090002FEBF0ECA3F09000317401F0758261120731
:2005A2008EAF82D2E8900004C007120062D0078F8222E58290001AF012065790001BE4F0F8
:2005C20090001C741BF07400A3F0E4A3F090001F04F0E4A3F075820112061990001B740806
:2005E200F090001C7419F07400A3F0E4A3F090001F04F0E4A3F075821112061990001AE085
:20060200FF600690001B7409F090001BE090003AF075820102087DE582900021F0E0FF743C
:200622001F5F4420FF90001CE0FCA3E0FDA3E0FE90001FE0FAA3E0FB90002CECF0EDA3F02F
:20064200EEA3F090002FEAF0EBA3F0900031E4F08F8202078E75E80275E80422AFF0AE8311
:20066200E582900025F0EEA3F0EFA3F0900025E0FDA3E0FEA3E0FF900022E0FBA3E0FC9038
:20068200002CEDF0EEA3F0EFA3F090002FEBF0ECA3F0900031E4F07582A012078EAF82909F
:2006A2000024E0FEBE0107C0071206B3D0078F8222D2E890000412006290000A120062C242
:2006C200E822E582900028F090003C7429F07400A3F0E4A3F090003F04F0E4A3F0758200F7
:2006E2001208CA900029E0FF30E0012290002974014FF090001C7429F07400A3F0E4A3F025
:2007020090001F04F0E4A3F0758200120619900028E0FF6008D2E8900004020062C2E82218
:2007220090002A7470F090001C742AF07400A3F0E4A3F090001F04F0E4A3F0758207120641
:2007420019C2C12290003C742BF07400A3F0E4A3F090003F04F0E4A3F07582001208CA905B
:20076200002BE0FF20E00122C2E890002B74FE5FF090001C742BF07400A3F0E4A3F09000DB
:200782001F04F0E4A3F0758200020619E582900032F0E0FF900033F0C2E99000347401F036
:2007A200E4A3F090003604F090003375F0001207EA90002CE0FDA3E0FEA3E0FF90002FE0A0
:2007C200FBA3E0FC900031E0FA900034EBF0ECA3F0900036EAF08D828E838FF01207EAD2D0
:2007E200E9900033E0F58222AFF0AE83E582900037F0EEA3F0EFA3F0900037E0FDA3E0FEBC
:20080200A3E0FF900036E0FC900034E0FAA3E0FB78007900C3E89AE99B505FC002C003E8C0
:200822002DF521E93EF5228F238521828522838523F01228F5FBF582C007C006C005C004E2
:20084200C003C002C001C000120906858224D000D001D002D003D004D005D006D007D003D5
:20086200D002EC600E8521828522838523F0E52412267308B8009D09809A22E58290003BD8
:20088200F090003AE0FF74024FF090001C743AF07400A3F0E4A3F090001F04F0E4A3F075B1
:2008A200820012061990000112006290003AE0FF20E003C2E82290003BE0FF6008D2E890AA
:2008C2000004020062C2E822E582900041F0E0FF53071F90003CE0FCA3E0FDA3E0FE900029
:2008E2003FE0FAA3E0FB90002CECF0EDA3F0EEA3F090002FEAF0EBA3F09000317401F08FFA
:200902008202078EE582900042F0E0F5E7E5E630E2FBC2C085E78222AFF0AE83E5829000A6
:2009220046F0EEA3F0EFA3F0900045E0FF24FA500122740A2FFF900046E0FCA3E0FDA3E0D6
:20094200FE900043E0FAA3E0FB90001CECF0EDA3F0EEA3F090001FEAF0EBA3F08F820206C3
:2009620019C2E890003C7449F07400A3F0E4A3F090003F04F0E4A3F07582001208CA900016
:2009820049E0FF20E1012290004974FD5FF090001C7449F07400A3F0E4A3F090001F04F0F6
:2009A200E4A3F0758200020619E58290004AF090003C744BF07400A3F0E4A3F090003F04A9
:2009C200F0E4A3F07582001208CA90004BE0FF30E1012290004B74024FF090001C744BF0FA
:2009E2007400A3F0E4A3F090001F04F0E4A3F075820012061990000112006290004BE0FF76
:200A020020E003C2E82290004AE0FF6008D2E8900004020062C2E82290003C744CF0740076
:200A2200A3F0E4A3F090003F04F0E4A3F07582171208CA90004CE0FF30E5047F0180027F29
:200A4200008F822212065790004D740EF090001C744DF07400A3F0E4A3F090001F04F0E441
:200A6200A3F07582001206199000021200DF90004D7433F090001C744DF07400A3F0E4A3D7
:200A8200F090001F04F0E4A3F075820412061990004D7403F090001C744DF07400A3F0E492
:200AA200A3F090001F04F0E4A3F075820312061990004D7406F090001C744DF07400A3F0B1
:200AC200E4A3F090001F04F0E4A3F075820612061990002CE4F0A3F0A3F090002FF0A3F05D
:200AE20090003104F07582E102078EE58290004EF090001C744EF07400A3F0E4A3F090002F
:200B02001F04F0E4A3F0758205020619E58290004FF090003C7450F07400A3F0E4A3F09068
:200B2200003F04F0E4A3F07582061208CA900050E0FF74D75FF090004FE0FFBF010B9000B6
:200B420050E0FE74204EF0800CBF0309900050E0FF74084FF090001C7450F07400A3F0E477
:200B6200A3F090001F04F0E4A3F0758206020619E582900051F0E0FFBF0108900052740172
:200B8200F08005900052E4F090001C7452F07400A3F0E4A3F090001F04F0E4A3F075820136
:200BA200020619E582900053F090003C7454F07400A3F0E4A3F090003F04F0E4A3F07582A5
:200BC200001208CA900054E0FF74F35FF0900053E0FFBF010B900054E0FE74084EF0800C21
:200BE200BF0209900054E0FF740C4FF090001C7454F07400A3F0E4A3F090001F04F0E4A39B
:200C0200F075820002061990003C7455F07400A3F0E4A3F090003F04F0E4A3F0758206127E
:200C220008CA900055E0FF74F95FF090001C7455F07400A3F0E4A3F090001F04F0E4A3F063
:200C420075820602061990FC04E0900057F090FC05E0900058F090FC06E0900059F090FC0D
:200C620007E090005AF090FC08E090005BF09000567401F090001C7456F07400A3F0E4A323
:200C8200F090001F04F0E4A3F075820212061990001C7457F07400A3F0E4A3F090001F7416
:200CA20005F0E4A3F075820A12061990001C7457F07400A3F0E4A3F090001F7405F0E4A310
:200CC200F07582101206199000567410F090001C7456F07400A3F0E4A3F090001F04F0E425
:200CE200A3F0758211020619AF83E58290005CF0EFA3F090005CE0FEA3E0FF8EAF8FAF2256
:200D0200AF82AE83ADF0FC90005EEFF0EEA3F0EDA3F0ECA3F0900062E4F0A3F0740755ADB3
:200D2200FFBF070B758202120DBBE5AD30E6FB90005EE0FCA3E0FDA3E0FEA3E0FFC3EC94DB
:200D4200F8ED94CFEE9407EF94005051EF5401A2E0CE13CE13CEFFEDC3134EFEED5401A254
:200D6200E0CC13CC13CCFD74F42CFC74013DFDE43EFEE43FFF90021A74E8F07403A3F0E4A3
:200D8200A3F0A3F08C828D838EF0EF1224F4AC82AD83AEF0FF900062ECF0EDA3F09000623B
:200DA200E0FEA3E0FF8E828F83C007C006120CEAD006D0078E828F8322E582900064F0AF2F
:200DC200AD5307F8900064E054074FF5AD22E582900066F0E0F5DD900065E0F5DE85DF8243
:200DE20022E582900067F0E09029F293F58222AFF0AE83E582900069F0EEA3F0EFA3F09017
:200E02000069E0F510A3E0F511A3E0F51274102510FAE43511FBAC12900068E025E025E0F7
:200E2200F97800C001E8F50825E025E02510F509E43511F50A85120BE875F03CA42AF50C39
:200E4200E43BF50D8C0E750F00D001C002C003C004E50F2509FAE4350AFBAC0BE50F292504
:200E62000CFDE4350DFEAF0E8D828E838FF01228F5FD8A828B838CF01228F5FF62058A8284
:200E82008B838CF0ED122673050FC3E50F9404D004D003D00240B4E50804F8B80400500366
:200EA200020E2522AFF0AE83E58290006CF0EEA3F0EFA3F090006CE0FDA3E0FEA3E0FF8D4A
:200EC200828E838FF01228F5F582C007C006C005120DE3AC82D005D006D0078D828E838FA5
:200EE200F0EC12267374012DFAE43EFB8F048A828B838CF01228F5F582C007C006C005C0CF
:200F020004C003C002120DE3A982D002D003D004D005D006D0078A828B838CF0E9122673F4
:200F220074022DFAE43EFB8F048A828B838CF01228F5F582C007C006C005C004C003C0028B
:200F4200120DE3A982D002D003D004D005D006D0078A828B838CF0E912267374032DFDE4B8
:200F62003EFE8D828E838FF01228F5F582C007C006C005120DE3AC82D005D006D0078D82DB
:200F82008E838FF0EC022673AFF0AE83E58290006FF0EEA3F0EFA3F090006FE0FDA3E0FEB2
:200FA200A3E0FF8D828E838FF01228F5F50874012DF509E43EF50A8F0B850982850A8385E0
:200FC2000BF01228F58D828E838FF012267374022DF8E43EFB8F0488828B838CF01228F58D
:200FE200850982850A83850BF012267374032DFDE43EFE8D828E838FF01228F588828B83FB
:201002008CF01226738D828E838FF0E508022673E582900072F0E0FFBFFF0475820022EF7E
:20102200902AF293F58222AFF0AE83E582900076F0EEA3F0EFA3F0900073E0F528A3E0F52E
:2010420029A3E0F52A900076E0FAA3E0FBA3E0FC8A2574012BF5268C277900852582852679
:20106200838527F01228F5F8C3E998400302116974102AF8E43BFE8C07E928F52BE43EF587
:201082002C8F2DE975F004A4F52E85F02F2528F8E52F3529FEAF2A88828E838FF01228F552
:2010A200852B82852C83852DF0122673744C2AFDE43BFE8C07E92DF52BE43EF52C8F2D743B
:2010C20001252EF8E4352FFFE82528F8EF3529FFAE2A88828F838EF01228F5852B82852C7E
:2010E20083852DF012267374882AFDE43BFE8C07E92DF52BE43EF52C8F2D7402252EF8E471
:20110200352FFFE82528F8EF3529FFAE2A88828F838EF01228F5852B82852C83852DF01236
:20112200267374C42AFDE43BFE8C07E92DFDE43EFEC002C003C0047403252EF8E4352FFC83
:20114200E82528F8EC3529FCAB2A88828C838BF01228F5F88D828E838FF012267309D00463
:20116200D003D00202105D74102AFDE43BFE8C07744C2AF52BE43BF52C8C2D74882AF528B8
:20118200E43BF5298C2A74C42AF530E43BF5318C3274012AFA74013BFBC005C006C0078AB0
:2011A200828B838CF01228F5F87F0008B800010FEFC825E0C833C825E0C833FF89057E0021
:2011C200C3ED98EE64808FF063F08095F0D007D006D005400122C002C003C004E914F82DCC
:2011E200FAE43EFB8F048A828B838CF01228F5900079F0E8252BFAE4352CFBAC2D8A828BA3
:20120200838CF01228F590007AF0E82528FAE43529FBAC2A8A828B838CF01228F590007B92
:20122200F0E82530F8E43531FCAB3288828C838BF01228F5F890007CF085258285268385CE
:2012420027F01228F5F52E852EF0E98485F033D004D003D002E5337071C002C003C0049020
:20126200007975F000C007C006C005C004C003C002C001120F8A90007975F000120EA6D083
:2012820001D002D003D004900079E0F88525828526838527F01228F5FC8CF0E984F582C0B0
:2012A20003C002C001C000121012AC82D000D001D002D003D005D006D007EC620090007965
:2012C200E8F0D004D003D0028030E52E24F9502A7404B5332590007975F000C007C006C021
:2012E20005C004C003C002C001120EA6D001D002D003D004D005D006D007C002C003C00402
:20130200E92DF534E43EF5358F368525828526838527F01228F5FAE9C39A2DFAE43EFB8F43
:2013220004900079E0F88A828B838CF01228F562008534828535838536F0E8122673E925DB
:201342002BF534E4352CF535852D368525828526838527F01228F5F8E9C398252BF8E4351E
:201362002CFBAC2D90007AE0FA88828B838CF01228F562028534828535838536F0EA12261B
:2013820073E92528F534E43529F535852A368525828526838527F01228F5F8E9C39825287A
:2013A200F8E43529FBAC2A90007BE0FA88828B838CF01228F562028534828535838536F0F1
:2013C200EA122673E92530F534E43531F5358532368525828526838527F01228F5F8E9C3E5
:2013E200982530F8E43531FBAC3290007CE0FA88828B838CF01228F5F862028534828535E9
:20140200838536F0EA12267309D004D003D00202119BAFF0AE83E582900084F0EEA3F0EF2C
:20142200A3F090007DE0FF7033900084E0FCA3E0FDA3E0FE8C0174012DFA8E0389828A83C5
:201442008BF0740412267374012CFC74013DFD8C828D838EF0740A1226738067BF01339071
:201462000084E0FDA3E0FEA3E0FF8D0274012EFB8F048A828B838CF0740612267374012DE9
:20148200FD74013EFE8D828E838FF0740C1226738031900084E0FDA3E0FEA3E0FF8D02742A
:2014A200012EFB8F048A828B838CF0740812267374012DFD74013EFE8D828E838FF0740E3F
:2014C200122673900084E0FDA3E0FEA3E0FF90007EE0FAA3E0FBA3E0FC900073EAF0EBA31B
:2014E200F0ECA3F08D828E838FF0121029900081E0FDA3E0FEA3E0FFED4E604A900084E0C7
:20150200FAA3E0FBA3E0FC74022AF53774013BF5388C397900E92537F53AE43538F53B8571
:20152200393CE92DFAE43EFB8F048A828B838CF01228F5FA853A82853B83853CF0122673D5
:2015420009B9100040CF900084E0FDA3E0FEA3E0FF74122DFD74013EFE8D828E838FF0E4D0
:20156200122673A3022673AFF0AE83E58290019BF0EEA3F0EFA3F090019BE0FDA3E0FEA3FD
:20158200E0FF7B007C008B3D8C3E8B00ECC825E0C833C825E0C833FAE82DF541EA3EF54236
:2015A2008F43E4F53FF540C005C006C007E53F2541FDE5403542FEAF438D828E838FF012F4
:2015C20028F5F582C007C006C005120DE3AA82D005D006D0078D828E838FF0EA122673053A
:2015E2003FE4B53F020540C3E53F9404E54064809480D007D006D00540AD7401253DFBE4CA
:20160200353EFCC3EB9404EC64809480500302158822AFF0AE83E58290019EF0EEA3F0EF55
:20162200A3F090019EE0FDA3E0FEA3E0FF74042DF50EE43EF50F8F1074082DF508E43EF5DC
:20164200098F0A740C2DF50BE43EF50C8F0D7900E92DF514E43EF5158F16851482851583D9
:201662008516F01228F5FA9001A1F0C005C006C007E9250EF511E4350FF5128510138511B1
:20168200828512838513F01228F5FF9001A2F0E92508F517E43509F518850A198517828537
:2016A20018838519F01228F5FB9001A3F0E9250BF51AE4350CF51B850D1C851A82851B8362
:2016C200851CF01228F5FC9001A4F08ADD75DE029001B4E5DFF0E0FE8CDD75DE019001B393
:2016E200E5DFF0E062068BDD75DE019001B2E5DFF0E062068FDD75DE039001B1E5DFF0E059
:2017020062068514828515838516F0EE1226738FDD75DE029001B0E5DFF0E0FE8ADD75DEB5
:20172200019001AFE5DFF0E062068CDD75DE019001AEE5DFF0E062068BDD75DE039001AD76
:20174200E5DFF0E062068511828512838513F0EE1226738BDD75DE029001ACE5DFF0E0FEAC
:201762008FDD75DE019001ABE5DFF0E062068ADD75DE019001AAE5DFF0E062068CDD75DEC1
:20178200039001A9E5DFF0E062068517828518838519F0EE1226738CDD75DE029001A8E5CD
:2017A200DFF0E0FE8BDD75DE019001A7E5DFF0E0FD62068FDD75DE019001A6E5DFF0E062A0
:2017C200068ADD75DE039001A5E5DFF0E0FF6206851A82851B83851CF0EE12267309B904DF
:2017E20000D007D006D005500302165222AFF0AE83E5829001C5F0EEA3F0EFA3F09001C5B0
:20180200E0FDA3E0FEA3E0FF74042DF509E43EF50A8F0B850982850A83850BF01228F5F5C2
:201822000874052DF50CE43EF50D8F0E850C82850D83850EF01228F5850982850A83850BAA
:20184200F012267374062DF509E43EF50A8F0B850982850A83850BF01228F5850C82850D15
:2018620083850EF012267374072DF8E43EF98F04888289838CF01228F5850982850A8385FF
:201882000BF0122673888289838CF0E50812267374082DF509E43EF50A8F0B850982850A75
:2018A20083850BF01228F5F50C740A2DF8E43EF98F04888289838CF01228F5850982850A42
:2018C20083850BF0122673888289838CF0E50C12267374092DF509E43EF50A8F0B850982B7
:2018E200850A83850BF01228F5F50C740B2DF8E43EF98F04888289838CF01228F585098201
:20190200850A83850BF0122673888289838CF0E50C122673740C2DF509E43EF50A8F0B856F
:201922000982850A83850BF01228F5F50C740F2DF50FE43EF5108F11850F82851083851119
:20194200F01228F5850982850A83850BF0122673740E2DFAE43EFB8F048A828B838CF01218
:2019620028F5850F828510838511F0122673740D2DFDE43EFE8D828E838FF01228F58A8244
:201982008B838CF01226738D828E838FF0E50C022673AFF0AE83E5829001CEF0EEA3F0EFEF
:2019A200A3F09001CEE0FDA3E0FEA3E0FF9001C8E0F548A3E0F549A3E0F54A7900E9F825DB
:2019C200E025E0FC2DF544E43EF5458F46754700C005C006C007E5472544FDE43545FEAFE2
:2019E2004688037C00E54775F004A42BFBEC35F0FCEB2548FBEC3549FCAA4A8B828C838AD9
:201A0200F01228F5FB8D828E838FF01226730547C3E5479404D007D006D00540B3E804F933
:201A2200B904004098900068E4F08D828E838FF0C007C006C005120DF1D005D006D007744C
:201A4200012DFA74013EFB8F0479018A828B838CF01228F5F8C3995003021B2B8D828E83CD
:201A62008FF0C007C006C005C004C003C002C001121569D001D002D003D004D005D006D034
:201A8200078D828E838FF0C007C006C005C004C003C002C0011217EFD001D002D003D004E0
:201AA200D005D006D0078A828B838CF01228F5F8C002C003C0047C0018B8FF011C89027B2E
:201AC20000C3E89AEC64808BF063F08095F0D004D003D00240258D828E838FF0C007C00612
:201AE200C005C004C003C002C001121614D001D002D003D004D005D006D007900068E9F03C
:201B02008D828E838FF0C007C006C005C004C003C002C001120DF1D001D002D003D004D09E
:201B220005D006D00709021A4D9001CBE0FAA3E0FBA3E0FC7900C002C003C004E9F825E0A4
:201B420025E02DF548E43EF5498F4A754700D004D003D002C005C006C00788067F00E5471B
:201B620075F004A42EFEEF35F0FFEE2AF544EF3BF5458C46E5472548FDE43549FEAF4A8D14
:201B8200828E838FF01228F58544828545838546F01226730547C3E5479404D007D006D0B4
:201BA2000540B1E804F9B904005003021B3822E5829001D1F0E0FF7E50E59030E4047D0150
:201BC20080027D00EDB507028002DEEDEE7003F5822275820122AFF0AE83E5829001D5F06B
:201BE200EEA3F0EFA3F09001D8E4F09001D9F09001DAF09001DBF09001DCF09001DDF0A334
:201C0200F090000704F075820C12011B9000121200DF75820C120383900007E4F075820C7A
:201C220012011B758200121BB1E582700475820122758201121BB1E582700475820122C21D
:201C4200AF758200121BB1E5827004758201227F00EF24D8F582E43401F583E4F08F067DB1
:201C620000758201C007C006C005121BB1E582D005D006D00770047582012290001EC0074E
:201C8200C006C00512006275820C1203EBE582D005D006D0076028EE24D8FBE43401FC8B4A
:201CA200828C83E0FA7407C39DF5F005F07401800225E0D5F0FBF942028B828C83EAF0759E
:201CC2008200C007C006C005121BB1E582D005D006D0077004758201220DBD0800500302B2
:201CE2001C630FBF05005003021C53D2AF9001D8E070169001D9E070109001DAE0700A905D
:201D020001DBE07004758201227F00EF24D8F582E43401F583E0FE7D009001DDE0FBA3E0DE
:201D2200FC9001DDEE2BF0ED3CA3F00FBF040040DA9001DDE0FEA3E07F009001DCE0FD7C72
:201D420000EEB50506EFB504028004758202229001D9E070539001DBE0704D9001D2E0FD34
:201D6200A3E0FEA3E0FF9001DAE075F00AA4FCABF08D828E838FF0EC122673A3EB122673FA
:201D82009001D5E0FDA3E0FEA3E0FF9001D8E075F00AA4FCABF08D828E838FF0EC122673D2
:201DA200A3EB122673021E359001D2E0FDA3E0FEA3E0FF9001D8E0FB7C009001D9E07A00CC
:201DC2004204EA42038D828E838FF0EC122673A3EB1226739001D5E0FDA3E0FEA3E0FF9047
:201DE20001DAE0FC53047F8C037C009001DBE0F97A004204EA42038D828E838FF0EC122652
:201E020073A3EB1226739001DAE0FC30E7258D828E838FF01228F5FBA31228F5FCC3E49BB8
:201E2200FBE49CFC8D828E838FF0EB122673A3EC122673758200229000077401F075820BA3
:201E420012011B9001E0120062900007E4F075820B12011B90003C12006275820B1203EB90
:201E6200E582FFB40100E433FF9001B8C007120062D0078F8222E5829001DFF0C2AF7F08E2
:201E82009001DFE0FE530601BE01299000077401F075820BC00712011B9000021200629027
:201EA2000007E4F075820B12011B90003C120062D00780219000077401F075820BC0071286
:201EC200011B90003C120062900007E4F075820B12011BD0079001DFE0C313FEF0DFA1D2CC
:201EE200AF229001E0E4F0C2AF7F009000077401F075820BC00712011B9000021200629051
:201F02000007E4F075820B12011B90000212006275820B1203EBAE82900032C00612006280
:201F2200D006D0079001E0E0C313FDEE035480FE4DF00FBF080040B3D2AF9001E0E0F582BC
:201F420022AFF0AE83E5829001E1F0EEA3F0EFA3F0900007E4F075820B12011B121E39E5D8
:201F6200827004758201227582CC121E7875824E121E78758200121E787582FF121E787545
:201F8200823F121E78121E39E5827004758201227582CC121E78758244121E787E907F019C
:201FA200C007C006121EE4AD82D006D007BDFF0280091EBEFF011FEE4F70E5EE4F700475A8
:201FC200820322121E39E5827004758201227582CC121E787582BE121E78121EE4AF82905D
:201FE20001E4EFF0121EE4AF829001E5EFF08F067F009001E4E07C004207EC42069001E6A8
:20200200EFF0EEA3F07C0074805EFDEC60116307FF6306FF9001E674012FF0E43EA3F09015
:202022000007E4F075820B12011B9001E1E0FDA3E0FEA3E0FF9001E6E0FBA3E0FC90022FAF
:20204200EBF0ECA3F0900006C007C006C005C004C00312268EA982AA83D003D00490023529
:202062007404F0E4A3F08B828C83C002C00112271AAB82AC83D001D002EB29F9EC3AFA89D8
:20208200828A83122825A982AA83ABF0FCE4C0E0C0E074C8C0E07442C0E089828A838BF078
:2020A200EC122832A982AA83ABF0FCE58124FCF581D005D006D0078D828E838FF0E9122699
:2020C20073A3EA122673A3EB122673A3EC12267375820022AFF0AE83E5829001E8F0EEA396
:2020E200F0EFA3F090FC09E0FF9001EBF090FC0CE060329001E8E0FDA3E0FEA3E0FF7AECC3
:202102007B017C009001C8EDF0EEA3F0EFA3F09001CBEAF0EBA3F0ECA3F090008775F000DD
:2021220012199480289001E8E0FDA3E0FEA3E0FF900226EDF0EEA3F0EFA3F0900229741006
:20214200F0E4A3F09001EC75F0001225FF120A1AE582601A90002CE4F0A3F0A3F090002F72
:20216200F0A3F090003104F07582E112078E1207227DEC7E017F009000227410F0E4A3F067
:2021820090002404F08D828E838FF012065E7E2C7F0130C14E90002CE4F0A3F0A3F09000D1
:2021A2002FF0A3F090003104F07582FFC007C00612078EE582D006D00720E55290002CE481
:2021C200F0A3F0A3F090002FF0A3F090003104F07582FFC007C00612078EE582D006D007B2
:2021E20020E42B8E048F051EBEFF011FEC4D700D9001EBE0FD14F0ED601402214F90000A0D
:20220200C007C006120062D006D00702219430C12C90002CE4F0A3F0A3F090002FF0A3F042
:2022220090003104F07582FF12078EE58230E40D9001EBE0FF14F0EF600302214F02072274
:20224200AFF0AE83E5829001FEF0EEA3F0EFA3F0900201E4F07582011206C41207229001BC
:20226200FCE0FEA3E0FF8E048F051EBEFF011FEC4D605F30C14C90002CE4F0A3F0A3F09064
:20228200002FF0A3F090003104F07582FFC007C00612078EE582D006D00730E6259001FECD
:2022A200E0FBA3E0FCA3E0FD9000147410F0E4A3F08B828C838DF012055F9002017401F0AC
:2022C200801090000AC007C006120062D006D0078094120722120746900201E0F5822290DA
:2022E200FC00E0FF90020BF090FC0CE0602390007DE4F090007E740DF074FCA3F0E4A3F09F
:20230200900081F0A3F0A3F090008775F0001214149000141200DF120A46120C4890FC03F2
:20232200E0F582120B7290FC01E0F582120AED90FC02E0F582120B0E90A1001204F19000F0
:20234200077401F075820112011B7582011203EBE58260087582011203178006758201126E
:20236200038343D380758200120542AE82AF83ADD3747F5DF5D390020A7401F090020C74E2
:2023820004F090020D14F0EF3395E0FDFC900216EEF0EFA3F0EDA3F0ECA3F090020A75F00C
:2023A200001220D690020A7402F090020CE4F090020DF090020EF090020675F000121F430F
:2023C200AF82900216EFF0EF702890020A7401F090020E7428F0900206E0FCA3E0FDA3E018
:2023E200FEA3E0FF900216ECF0EDA3F0EEA3F0EFA3F090020A75F0001220D6900007E4F0E0
:2024020075820B12011B90020A7402F090020CF090020E14F09001D27404F07402A3F0E49E
:20242200A3F090020275F000121BD8AF82900216EFF0EF600B90020A75F0001220D6805915
:2024420090020A7401F090020DE4F0900202E0FEA3E0FF3395E0FDFC900216EEF0EFA3F069
:20246200EDA3F0ECA3F090020A75F0001220D690020D7401F0900204E0FEA3E0FF3395E0B0
:20248200FDFC900216EEF0EFA3F0EDA3F0ECA3F090020A75F0001220D6900007E4F07582CF
:2024A2000C12011B900007E4F075820D12011B75820D1203EBE582603075AD01758201121B
:2024C200031775AE0290FC0AE0FEA3E0FF900231EEF0EFA3F0E4A3F0A3F09003E8E4F5F054
:1224E2001226AE120D0275A4049007D01200DF02234CFB
:2029F200637C777BF26B6FC53001672BFED7AB76CA82C97DFA5947F0ADD4A2AF9CA472C04A
:202A1200B7FD9326363FF7CC34A5E5F171D8311504C723C31896059A071280E2EB27B2750F
:202A320009832C1A1B6E5AA0523BD6B329E32F8453D100ED20FCB15B6ACBBE394A4C58CF38
:202A5200D0EFAAFB434D338545F9027F503C9FA851A3408F929D38F5BCB6DA2110FFF3D2C6
:202A7200CD0C13EC5F974417C4A77E3D645D197360814FDC222A908846EEB814DE5E0BDB16
:202A9200E0323A0A4906245CC2D3AC629195E479E7C8376D8DD54EA96C56F4EA657AAE08F8
:202AB200BA78252E1CA6B4C6E8DD741F4BBD8B8A703EB5664803F60E613557B986C11D9E0E
:202AD200E1F8981169D98E949B1E87E9CE5528DF8CA1890DBFE6426841992D0FB054BB16AE
:202AF2008D01020408102040801B366CD8AB4D9A2F5EBC63C697356AD4B37DFAEFC59139ED
:202B120072E4D3BD61C29F254A943366CC831D3A74E8CB8D01020408102040801B366CD871
:202B3200AB4D9A2F5EBC63C697356AD4B37DFAEFC5913972E4D3BD61C29F254A943366CCBD
:202B5200831D3A74E8CB8D01020408102040801B366CD8AB4D9A2F5EBC63C697356AD4B380
:202B72007DFAEFC5913972E4D3BD61C29F254A943366CC831D3A74E8CB8D01020408102071
:202B920040801B366CD8AB4D9A2F5EBC63C697356AD4B37DFAEFC5913972E4D3BD61C29F70
:202BB200254A943366CC831D3A74E8CB8D01020408102040801B366CD8AB4D9A2F5EBC633B
:1F2BD200C697356AD4B37DFAEFC5913972E4D3BD61C29F254A943366CC831D3A74E8CB5B
:2024F400AF82AE83ADF0FC90021EEFF0EEA3F0EDA3F0ECA3F0900222E4F0A3F0A3F0A3F07D
:2025140090021AE0FCA3E0FDA3E0FEA3E0FF75082090021EE0F8A3E0F9A3E0FAA3E0FB33CD
:202534009200E828F8E933F9EA33FAEB33FB90021EE8F0E9A3F0EAA3F0EBA3F0900222E015
:20255400F8A3E0F9A3E0FAA3E0FBE828F8E933F9EA33FAEB33FB900222E8F0E9A3F0EAA316
:20257400F0EBA3F030001E900222E0F8A3E0F9A3E0FAA3E0FB900222740148F0E9A3F0EAC1
:20259400A3F0EBA3F0900222E0F8A3E0F9A3E0FAA3E0FBC3E89CE99DEA9EEB9F4031900231
:2025B40022E8C39CF0E99DA3F0EA9EA3F0EB9FA3F090021EE0F8A3E0F9A3E0FAA3E0FB90CE
:2025D400021E740148F0E9A3F0EAA3F0EBA3F0D50802800302252590021EE0FCA3E0FDA346
:0B25F400E0FEA3E08C828D838EF022BD
:06003500E478FFF6D8FD9F
:2025FF00AFF0AE83E58290022BF0EEA3F0EFA3F090022BE0F508A3E0F509A3E0F50AAA0886
:20261F00AB09AC0A900226E0F8A3E0F9A3E0FF900229E0F50BA3E0F50CAD0BAE0C150B747E
:20263F00FFB50B02150CED4E6020888289838FF01228F5FEA3A882A9838A828B838CF0EE9F
:14265F00122673A3AA82AB8380CF850882850983850AF022AF
:200013007900E94400601B7A00902BF1783F75C902E493F2A308B8000205C9D9F4DAF275E5
:02003300C9FF03
:1B26730020F71130F6138883A88220F509F6A8837583002280FEF280F5F02266
:20268E00AA83AB828BF090022FE0A4F8A9F08AF0E0A429F98BF0A3E0A429F58388822222D0
:2026AE00A882A983AAF0FB88F0900231E0A4FCADF089F0E0A42DFDE435F0FE88F0A3E0A4FC
:2026CE002DFDE5F03EFEE433FF89F0E0A42EFEE5F03FFF88F0A3E0A42EFEE5F03FFF8AF007
:2026EE00900231E0A42EFEE5F03FFF8BF0E0A42FFF8AF0A3E0A42FFF89F0A3E0A42FFF88F4
:0C270E00F0A3E0A42F8EF08D838C8222BB
:20003B007800E84400600A790175C900E4F309D8FC783EE84402600C7903900001E4F0A357
:04005B00D8FCD9FAFA
:20271A00AF83E582900237F0EFA3F0900237E0FEA3E0FF33E433FD6009C3E49EFBE49FFC33
:20273A0080048E038F04900235E0FEA3E0FF33E433FA6009C3E49EF8E49FF980048E008FA9
:20275A0001900239E8F0E9A3F08B828C83C005C00212278BAE82AF83D002D005EA6D600C0C
:11277A00C3E49EFCE49FFD8C828D83228E828F832209
:20278B00AF83E58290023BF0EFA3F090023DE4F0A3F0900239E0FEA3E0FF7D1090023BE0BB
:2027AB00FBA3E0FC339201ECCB25E0CB33FC90023BEBF0ECA3F090023DE0FBA3E0CB25E0F4
:2027CB00CB33FC90023DEBF0ECA3F030011290023DE0FBA3E0FC90023D74014BF0ECA3F061
:2027EB0090023DE0FBA3E0FCC3EB9EEC9F401D90023DEBC39EF0EC9FA3F090023BE0FBA3FD
:1A280B00E0FC90023B74014BF0ECA3F0DD8E90023BE0FEA3E08E82F5832298
:0D282500AC83AB827A007900748E02291A10
:2028320012293E30D502B2D1BF0009BC00030229E70229DABC00030229C4E583B4FF0BE52C
:2028520082B4FF030229E70229C4E582B4FF030229DAC395835007247F400B0229C4248058
:202872001450030229DAF582C3ED9AEE9BEF9C40111582C3EA33F9EB33FAEC33FBE433FCFF
:202892008005E4CCCBCAF9C08275F019C3E99DEA9EEB9FEC9400D5F002802D400EE99DF987
:2028B200EA9EFAEB9FFBEC9400FCC3B3E833F8E58233F582E58333F583C3E933F9EA33FAE7
:2028D200EB33FBEC33FC80C4B3E4F938FAE43582FBE43583FCD082500405827C8012296CAE
:0328F2000229BBFD
:0D00060075814A12299FE582600302000304
:1C28F50020F71430F6148883A88220F507E6A88375830022E280F7E49322E022F2
:20291100FCABF0AA83A982749EF582C2D1EC30E716D2D1E9F42401F9EAF43400FAEBF434C5
:0D29310000FBECF43400FC12296C0229A319
:20293E00AA82AB83A2F73392D1F5826002D2F7ACF0E58124F9F8E6FD08E6FE0886F008E6FC
:0E295E00A2F73392D5F5836002D2F7AFF022D4
:20296C007804EC7011E58224F8500AF582E4C9CACBFCD8EF22EC7820058220E713D582016A
:13298C0022C3E933F9EA33FAEB33FBEC33FCD8EA15822278
:04299F00758200221B
:2029A300B98003EA13B34010EA2401FAE43BFBE43CFC50047C800582BC000EBB000BBA0078
:2029C30008E4F5F0F583F58222A2D1E582138CF092F78B838A8222E4F583F58275F080F438
:0F29E300A2D11322E4F583F58275F0C0747F2230
:00000001FF
